:100000000C9403030C9420030C9420030C94200301
:100010000C9420030C9420030C9420030C942003D4
:100020000C9420030C9420030C944E230C94202455
:100030000C948B1E0C9420030C9420030C9420032E
:100040000C9420030C9420030C9420030C942003A4
:100050000C9420030C94051F0C9420030C94200393
:100060000C9420030C9420030C9420030C94200384
:100070000C9420030C9420030C9420030C94200374
:100080000C9420030C9420030C9420030C94200364
:100090000C9420030C9420030C9420030C94200354
:1000A0000C9420030C9420030C9420034E064E065F
:1000B0007A067A06DB06E207E207E207F90671072D
:1000C000820782075113541359135E136313681385
:1000D0006D13721377137D138213DB1B4D1CE31B0F
:1000E000AD1BB11BE71BB41BEA1BF51BBF1B431C5D
:1000F000C31BF91BC71BFD1B271CCB1B011C311C81
:10010000D11B071C111CB81BEE1BBB1BF11BD61B04
:100110000C1C1D1C3D1C3F1CA91BDF1B561CF01C8E
:10012000F61CE41CEA1CFC1C021D081D8824AF24DC
:10013000A725AF24A725FB241E25A72575258425E3
:100140000000000029003A003B003C003D003E005A
:100150002B0014001A000800150017001C001800DE
:10016000390004001600070009000A000B000D000A
:10017000E1001D001B000600190005001100100021
:100180003F00400041004C000C00120013002A0008
:100190000E000F0033002800360037003832000010
:1001A000E000E300E2002C412C42E200E700E40022
:1001B00000000000167C4200430044004500490056
:1001C00001001E021F022002210222022302240239
:1001D00001002D022E022F02300231025000510088
:1001E0000100000000000000000000004A004D0077
:1001F00048004700460001002502260227020100B0
:1002000052004F00000034004B004E003800000048
:1002100001000100010001000100010001000100D6
:100220000000000035024200430044004500A800E1
:1002300001001E001F0020002100220023002400D6
:1002400001002D002E002F003000310000000000C2
:10025000010000000000000000000000000000009D
:10026000A900AA00AE000100250026002700010019
:10027000000000000000340200000000380200000E
:100280000100010001000100010001000100010066
:10029000000000000000000000000000000000005E
:1002A0002778257823782178000020780000000046
:1002B00028782678247822780000000000000000CA
:1002C000000000000000000000000000000000002E
:1002D000000000000000007C0000000000000000A2
:1002E000000000000000000000000000000000000E
:1002F00000000000000001000100000000000000FC
:100300001E0F0500047F3F1F643214643214783CD2
:100310001E1E140A052223252628292A2C2D2F30BB
:1003200032333536383A3B3D3E4042434547494AF1
:100330004C4E5051535557595A5C5E606264666822
:10034000696B6D6F71737577797B7D7F818385872D
:10035000898A8C8E90929496989A9C9E9FA1A3A530
:10036000A7A8AAACAEAFB1B3B4B6B8B9BBBCBEBF58
:10037000C1C2C3C5C6C7C9CACBCCCDCED0D1D2D2DB
:10038000D3D4D5D6D7D7D8D9D9DADADBDBDBDCDCE6
:10039000DCDCDCDDDDDDDDDCDCDCDCDCDBDBDBDA9E
:1003A000DAD9D9D8D7D7D6D5D4D3D2D2D1D0CECD09
:1003B000CCCBCAC9C7C6C5C3C2C1BFBEBCBBB9B816
:1003C000B6B4B3B1AFAEACAAA8A7A5A3A19F9E9C9B
:1003D0009A98969492908E8C8A89878583817F7D66
:1003E0007B79777573716F6D6B6968666462605E47
:1003F0005C5A5957555351504E4C4A494745434210
:10040000403E3D3B3A3836353332302F2D2C2A29A9
:100410002826252322FFAA7F554000010101010162
:1004200001010101020202020202020202030303AD
:10043000030303030304040404040404050505057D
:10044000050606060606070707070708080808093D
:100450000909090A0A0A0B0B0B0C0C0C0D0D0D0EE9
:100460000E0E0F0F0F10101111111212131314147E
:10047000151516161717181819191A1A1B1B1C1DF3
:100480001D1E1E1F2020212222232424252626274C
:100490002829292A2B2C2D2D2E2F3031323233347E
:1004A00035363738393A3B3C3D3E3F404142434484
:1004B00045464748494A4C4D4E4F50515354555666
:1004C00058595A5B5D5E5F616264656668696B6C12
:1004D0006D6F7072737577787A7B7D7E808283858D
:1004E00087888A8C8E8F91939596989A9C9EA0A2CD
:1004F000A3A5A7A9ABADAFB1B3B5B7BABCBEC0C2D7
:10050000C4C6C9CBCDCFD1D4D6D8DBDDDFE2E4E79A
:10051000E9EBEEF0F3F5F8FAFDFF14037200650065
:100520007600690075006E0067003500330000003A
:100530000C0367007400690070007300000004037E
:10054000090409023B00020100A0FA0904000001AD
:100550000301010009211101000122440007058166
:100560000308000109040100010300000009211132
:100570000100012232000705820320000112010060
:100580000200000008944E094E010001020001051E
:10059000010980A101850319012AB700150126B7B9
:1005A00000950175108100C0050C0901A1018504A9
:1005B00019012AA002150126A002950175108100DB
:1005C000C005010906A101050719E029E715002565
:1005D00001950875018102950175088101050719CA
:1005E0000029FF150026FF00950675088100050803
:1005F000190129051500250195057501910295013F
:1006000075039101C00011241FBECFEFDAE0DEBFF9
:10061000CDBF11E0A0E0B1E0ECEAFFE402C005903C
:100620000D92AC3DB107D9F723E0ACEDB1E001C0CC
:100630001D92A830B207E1F70E9421130C94D42731
:100640000C94000023E042E061E00E94FD0908955F
:100650008430C8F46730B8F44830A8F4E62FF0E0EE
:1006600097E0899FE00DF11D112483E0EE0FFF1F3D
:100670008A95E1F7E40FF11DEE0FFF1FE05CFE4FDE
:1006800085919491089581E090E008950E94280357
:10069000089581E0089581E008950E944B03089534
:1006A0000E944B0308950E94500308950E944B033B
:1006B00008950E944B03089508950E945C030895D5
:1006C0000E945C03089508950E9463030895A6E0C4
:1006D000B0E0EDE6F3E00C947F2649835A839E83D5
:1006E0003091E30189819A81311115C03E81332314
:1006F00059F0222349F00E949D09182F682F898103
:100700009A810E94790903C00E948B09182F698180
:100710007A81812F04C00E949D0969817A810E949B
:10072000CF102696E3E00C949B26FC01262F4081F7
:10073000518162817381848195810E94670308954C
:10074000CF93DF93EC0161E00E949503BE010E940C
:100750005603882341F061E0CE010E949503BE015B
:100760000E94530302C080E090E08170DF91CF913E
:1007700008950F931F93CF93DF93EC0160E00E94E5
:1007800095038C01BE010E945D03BE01C8010E9459
:100790006003DF91CF911F910F91089521E030E028
:1007A000A90102C0440F551F8A95E2F7CA010E94B1
:1007B000A0080895CF93C82F81E090E00C2E02C0CE
:1007C000880F991F0A94E2F70E941A0E8C2F0E943C
:1007D000CE03CF91089581E008950E94EB03089520
:1007E0000E94EB030895CF93C82F0E9450088C2FCE
:1007F0000E94ED038C2F0E94F0032FEF84E39CE016
:10080000215080409040E1F700C00000CF91089552
:1008100081E00E94F3030E942B1F089580E00E9454
:10082000F3030E943C1F08950F931F93CF93DF9310
:100830008C0161E00E949503EC01F8018581811132
:100840000E94F81AB801CE010E944D03882399F145
:10085000B801CE010E945903882369F1B801CE0185
:100860000E94D81C882339F1B801CE010E94851B53
:10087000882309F1B801CE010E945B1B8823D9F0BF
:10088000B801CE010E943B138823A9F0B801CE0124
:100890000E94CD11882379F0F8018581882349F1E0
:1008A000C330FCE7DF07D9F060F4C115ECE7DE07E1
:1008B00021F40E94080480E01FC0C130DC4789F0A9
:1008C00018C0CB358CE7D80791F0CC35ECE7DE07C4
:1008D00059F0CA35DC4769F40E94F50D0AC00E9440
:1008E000FD0D0E940E04E7CF0E94EB0D02C00E9496
:1008F000F90DC8010E944903DF91CF911F910F911B
:1009000008950E9464030E945A1E0E94A9040E9436
:100910005A1908950E94AD040E944E1A0E94630362
:100920000E94631E089581E008950895CF93DF9398
:10093000D82F0E949304C82F882319F08D2F0E946E
:1009400095048C2FDF91CF91089508950E9496040D
:10095000089580E00E94A60408950E94201D0E9430
:10096000A6040895CF930E94201DC82F8091DE0118
:10097000C81779F0C093DE010E94F91E6093DF0171
:100980007093E0018093E1019093E2018C2F0E942B
:10099000A604CF910895ADE0B0E0E1EDF4E00C9451
:1009A0008026488759876A877B878C879D87911126
:1009B0000E94270DCE01019627E0FC0111922A9595
:1009C000E9F726E0FE013896DC0101900D922A95A8
:1009D000E1F72D8121110AC029813A814B815C8187
:1009E0006D817E818F810E94710C04C00E94A003E2
:1009F0008111F2CF2D96E2E00C949C26FC0124811B
:100A0000213021F4808191810E94CF090895CF93F4
:100A1000882309F47FC0C82F8238A1F40E942D1DBD
:100A200081FD78C089E30E94CF1D0E94890D2FEFC0
:100A300087EE93E0215080409040E1F700C0000035
:100A400089E315C08338C1F40E942D1D80FD62C06A
:100A500083E50E94CF1D0E94890D2FEF81EE94E067
:100A6000215080409040E1F700C0000083E50E94E3
:100A7000D71D0E94890D4EC08438A1F40E942D1DFF
:100A800082FD48C087E40E94CF1D0E94890D2FEF90
:100A900081EE94E0215080409040E1F700C00000DA
:100AA00087E4E5CF8CEF8C0F813A70F48C2F0E9495
:100AB000941D882329F08C2F0E94D71D0E94890D38
:100AC0008C2F0E94CF1DD5CF80E28C0F883048F448
:100AD000C77081E001C0880FCA95EAF70E940A0D2D
:100AE000C8CFEBE5EC0FE33040F4F0E0E35AFE4F03
:100AF000808190E00E943B1D0DC0C85ACB3150F45C
:100B0000EC2FF0E0EE0FFF1FE95DFE4F8081918139
:100B10000E94601DCF910895882309F44DC082384A
:100B200059F40E942D1D81FF47C089E30E94CF1D0B
:100B30000E94890D89E30CC0833879F40E942D1D31
:100B400080FF3AC083E50E94CF1D0E94890D83E596
:100B50000E94D71D0E94890D0895843859F40E947F
:100B60002D1D82FF29C087E40E94CF1D0E94890DA0
:100B700087E4EECF9CEF980F913A50F390E2980FF4
:100B8000983050F4877091E001C0990F8A95EAF788
:100B9000892F0E94100DDECF9BE5980F933028F42B
:100BA00080E090E00E943B1D0895885A8B3120F42C
:100BB00080E090E00E94601D08951F93CF93DF9323
:100BC000182FEB010E940705209741F08FE99FE065
:100BD0000197F1F700C000002197F6CF812F0E9406
:100BE0008C05DF91CF911F910895893319F060E052
:100BF00070E002C060E570E00E94DD050895882382
:100C000021F00E940A0D0E94890D0895882321F089
:100C10000E94100D0E94890D0895A0E0B0E0E3E16C
:100C2000F6E00C947A267C01062FC72FFC01D581B3
:100C3000168112951F700E94000D8823F9F0DD23A4
:100C4000E9F08C2F807F803461F080E2800F883063
:100C5000A8F08C2F807E803221F4023078F01123AE
:100C600069F08091C20282FF09C082E00E94BF0D3C
:100C70000E94000D91E0D82ED92601C0D12CCC2E97
:100C8000C2948FE0C8228C2D90E08C30910508F042
:100C900099C1FC01EA5AFF4F0C9439268C2F807FB2
:100CA000CF70882311F0C295C07FDD2399F0CC234B
:100CB00009F474C180E2800F883010F0011104C083
:100CC0008C2F0E940A0D03C08C2F0E941A0D0E94C7
:100CD000890D64C1802F0E948C05CC2309F472C158
:100CE00080E2800F883038F1002329F18C2F0E9498
:100CF000200D24C08C2F807FCF70803211F0C295E0
:100D0000C07F002319F0013099F13CC08091C202EC
:100D100082FD17C0DD2349F0CC2329F08C2F0E94DF
:100D20000A0D0E94890D80E03AC180E00E948C0586
:100D3000CC2309F447C18C2F0E94100D0E94890D0D
:100D400041C1DD2349F0112309F1113009F03AC105
:100D50008C2F0E94310D36C1111134C18C2F0E948D
:100D600006068C2F0E943D0D8C2F0E94920D2AC1E9
:100D7000DD2321F0163008F025C108C0153008F039
:100D800021C115C0DD2331F0111108C18C2F0E9443
:100D9000FF0518C1112359F0093309F010C1FFEF05
:100DA00027EE83E0F15020408040E1F706C18C2F10
:100DB0000E94060607C18C2F86958695837019F0D0
:100DC000813061F0FFC0DD2321F0802F9C2F9370D4
:100DD00002C080E090E00E943B1DFDC0DD2321F0B9
:100DE000802F9C2F937002C080E090E00E94601DD5
:100DF000F2C08C2F8370B9F5D111E8C0402F429515
:100E000046954770440F440F202F2F70822F90E09B
:100E10009C01042E02C0220F331F0A94E2F704FF44
:100E20000AC08FE090E002C0880F991F4A95E2F750
:100E30008095909502C080E090E0C695C695C370FD
:100E4000822B932BC23049F058F4C13019F00E9424
:100E5000AC08BCC00E94A308B9C00E94B508B6C0C7
:100E60000E94A008B3C0DD2319F08C2F817001C04F
:100E70008695882309F4AAC0402F4295469547706D
:100E8000440F440F202F2F70822F90E09C01042EDE
:100E900002C0220F331F0A94E2F704FF0AC08FE05A
:100EA00090E002C0880F991F4A95E2F780959095CF
:100EB00002C080E090E0C695C695C370822B932B4C
:100EC000C23049F058F4C13019F00E9414097EC0B4
:100ED0000E940B097BC00E941D0978C00E94C108B6
:100EE00075C0CF70DD2339F08C2F0E94D908802F78
:100EF0000E94FF056BC0802F0E9406068C2F0E9467
:100F0000E90864C0023F21F128F4003F41F0013FAD
:100F1000C1F040C0033F19F1043F79F03BC0DD232D
:100F200041F0153008F04EC08C2F8F710E94FB08E5
:100F300049C0163008F046C0F7CF8091C20282FD4A
:100F400018C0DD2339F08C2F8F710E94D9083AC068
:100F5000DD23C9F38C2F8F710E94E90833C0DD2394
:100F600029F08C2F8F710E94CD082CC00E94C808D8
:100F700029C0DD2331F063E08C2F8F710E94A10D19
:100F800021C081E00E94BF0D1230E0F082E00E949B
:100F9000BF0D18C0DD2331F01123A9F2802F0E946C
:100FA000070510C01123B1F2093349F49FEFE7EEB2
:100FB000F3E09150E040F040E1F700C00000802FE6
:100FC0000E948C0588EF8C0D843028F40E94201D2F
:100FD0000E94A60413C0DD2089F00E94FC0C80FD55
:100FE0000DC0F70115820E94F60C0E94D908C701B6
:100FF0000E941B080E94F60C0E94E908CDB7DEB7DC
:10100000E8E00C9496260F931F93CF93DF93EC01A7
:10101000688179818D810E94DA098C010E942609FC
:101020000E949108B801CE010E940D06DF91CF9178
:101030001F910F910895CF93DF93FC012481222308
:10104000D1F0EC010E94140481110FC00E94000D28
:10105000882389F08D81882371F08091C20282FFFC
:101060000AC082E00E94BF0D06C0CE010E940308A4
:10107000CE010E94B903DF91CF91089580E090E006
:101080000E943B1D80E090E00E94601D0E94270DA1
:101090000E94890D08950E94DF1D0E943E08089558
:1010A0000E94170D0E944B08089592959F709630EC
:1010B00079F010F4925001C09A50923068F4803F59
:1010C00069F018F4883E40F409C0843F29F406C052
:1010D000883E20F0813F11F080E0089581E008957E
:1010E000FC012481222339F0808191810E94CF0963
:1010F0000E945508089580E00895A6E0B0E0E3E876
:10110000F8E00C9480262696E2E00C949C26A7E05A
:10111000B0E0EDE8F8E00C9480262796E2E00C942D
:101120009C26089508950E94920808950E949308AD
:1011300008950E94960890930302809302020895F6
:101140000E94990808952091020230910302822B97
:10115000932B0E9499080895209102023091030276
:10116000822393230E9499080895209102023091CE
:101170000302822793270E94990808950E94220360
:1011800008950E94BE089093010280930002089582
:1011900080E090E00E94C108089521E030E0A901BC
:1011A00002C0440F551F8A95E2F7CA010E94C10888
:1011B000089521E030E002C0220F331F8A95E2F744
:1011C0008091000290910102822B932B0E94C10812
:1011D000089521E030E002C0220F331F8A95E2F724
:1011E00020953095809100029091010282239323F3
:1011F0000E94C108089521E030E002C0220F331F91
:101200008A95E2F78091000290910102822793274C
:101210000E94C10808952091000230910102822BA2
:10122000932B0E94C1080895209100023091010281
:10123000822393230E94C1080895209100023091D7
:101240000102822793270E94C10808950895962FCE
:101250009770A1E001C0AA0F9A95EAF793E07695FE
:1012600067959A95E1F7660F771F660F771FFA016A
:10127000E60FF71F40E050E0682F70E090819B017F
:10128000042E02C0369527950A94E2F72170219525
:1012900029272A23292721934F5F5F4F4430510587
:1012A00069F70895FB01782F777023E0969587956D
:1012B0002A95E1F7880F991F880F991FE80FF91FEA
:1012C00040E050E080E0219130E0072E02C03695EA
:1012D00027950A94E2F721703327042E01C0220FCC
:1012E0000A94EAF7822B4F5F5F4F4430510559F75C
:1012F0000895282F973070F4883060F4862F622F7D
:1013000070E028E0929F600D711D112444EE51E0C1
:101310000E9427090895973070F4883060F4292FCF
:1013200090E064EE71E038E0239F800D911D112460
:101330000E945209089580E00895A0E0B0E0E3EA39
:10134000F9E00C9479267C010091000210910102D1
:101350008091020290910302082B192BCFE0D0E07C
:10136000CC24C394D12CC6010C2E02C0880F991F27
:101370000A94E2F780239123892B21F4219798F78F
:10138000B12C07C0BC2EB7018C2F0E94DB10019737
:10139000A9F38B2DCDB7DEB7E9E00C949526CF935A
:1013A000DF93EC010E949D09BE010E94DB10DF91DA
:1013B000CF9108951F93CF93DF93EB019091E301B9
:1013C000992321F0CB010E94CF0913C0882349F053
:1013D000CB010E949D09182F682FCE010E94790928
:1013E00004C0CB010E948B09182FBE01812F0E94DF
:1013F000DB10DF91CF911F910895E1E0F0E0DF0174
:1014000002C0AA0FBB1F6A95E2F7BD01DF0102C04F
:10141000AA0FBB1F4A95E2F7AD01462B572B02C01E
:10142000EE0FFF1F2A95E2F79A012823392342176E
:10143000530719F48E2B9F2B0895E095F0958E237A
:101440009F2308951F93CF93DF93C091040217E069
:1014500080910502C817A1F0D0E01C9FF0011D9FEC
:10146000F00D1124EA5FFD4F2081318142815381CB
:101470006481758186810E9487082196C770E8CFB4
:10148000DF91CF911F91089520913E0230913F024C
:10149000409140025091410260914202709143029A
:1014A000809144020E9487080895CF93DF93809132
:1014B000440282958F7009F04EC0809143028823C8
:1014C00009F449C0809104024091050250913F0205
:1014D00060913E02C0914002D091410277E08417B2
:1014E000D1F190E0789FF001799FF00D1124DF0198
:1014F000AA5FBD4F14962C911497222349F111969F
:101500002C911197251324C02C91261321C01596D8
:101510002C91159721111CC012962D913C91139777
:101520002C1B3D0B283C310598F4809144028F70B0
:10153000806180934402E45FFD4F80818F70806101
:1015400080838EE392E00E941B080E94220A03C05F
:1015500001968770C4CFDF91CF9108952091040246
:101560009091050257E02917A9F030E0529FF00151
:10157000539FF00D1124EA5FFD4F7181761306C071
:101580007081781303C07581741306C02F5F3F4FBD
:101590002770E9CF80E0089581E00895A4E1B0E0EC
:1015A000E4EDFAE00C9476268C0186E0F801DE0189
:1015B0001F9601900D928A95E1F7F8018481E580EC
:1015C0009EE3A92E92E0B92E90914202911118C08B
:1015D000882309F47FC1EE20D9F1C8010E94700868
:1015E000F82E8823A9F187E0F801D50101900D922A
:1015F0008A95E1F7C5010E94FE040E94550A65C163
:10160000F801C080D18082809380F09043022091C5
:10161000400230914102A401421B530BFF2009F408
:10162000F8C0483C510508F0A1C0882309F454C112
:1016300080914402282F207F90913F02222361F065
:101640009D1509F462C0C8010E947008811165C02F
:10165000C8010E941B083EC19D1115C090913E0219
:101660009C1111C0E1100FC08F7080618093440203
:101670000E94440A8EE392E00E941B08809144027B
:10168000F801868325C1E1103AC040E06D2D8C2D14
:101690000E94AE0A40E06D2D8C2D0E94AE0AE82E0D
:1016A000811116C1CF86D88A8F8598890E94CF096B
:1016B000292F22952F70243020F49F70223028F09B
:1016C00009C02A50223080F014C0992349F08111BA
:1016D00007C013C0992321F0F8019681907F69F02B
:1016E000805E883030F409C0803F38F0815F8330FD
:1016F00020F0C8010E941B08EF2CFE2CEDC0809149
:101700004402816080934402E3C090913E029C11A8
:101710009ACFE11098CFF801A7C0EE2009F498CF36
:1017200020914402822F82958F7090E002978CF076
:1017300080913E0290913F02998788879B868A8696
:10174000809142028C871D862E87CE0108960E94CA
:101750001B0887E0F801AEE3B2E001900D928A9594
:10176000E1F70E94550A0E94440AB4C090914402D5
:10177000292F207FA1F4682D9A8A898AA6017A8967
:101780009E2D0E947D088EE392E00E941B0887E058
:10179000F50111928A95E9F70E94440A99C08823BD
:1017A00009F49AC080913F028D1111C080913E02D0
:1017B0008C110DC0E1100BC0F8019683C8010E9486
:1017C0001B0887E0F50111928A95E9F785C0C801E9
:1017D0000E947008882309F43BCFEE2009F438CF2B
:1017E00020914402822F82958F7090E002970CF432
:1017F000B0CF80913E0290913F029A8389839C8270
:101800008B82809142028D831E822F83CE010196AE
:101810009ECF483C510508F04BC0882309F45AC0BC
:10182000FE2CEE2009F414CF80913F028D1132C0BE
:1018300080913E028C112EC09091440290FD21C0F7
:10184000892F82958F70282F30E021153105C9F03E
:10185000F80196832F30310541F08F5F982F9295D4
:10186000907F86818F70892B8683C8010E941B0818
:1018700087E0F801AEE3B2E001900D928A95E1F7BE
:1018800024C087E0F801AEE3B2E001900D928A95A2
:10189000E1F722C0C8010E94700881115ACF8091DF
:1018A0004402816080934402C8010E941B0814C056
:1018B000682D9A8A898AA6017A899E2D0E947D08C0
:1018C00087E0F50111928A95E9F70E94440A04C065
:1018D000F12C02C0FF24F3948F2D6496ECE00C945D
:1018E0009226AEE0B0E0E7E7FCE00C947F26288784
:1018F00039874A875B876C877D878E87CE010896FC
:101900000E94CE0A882361F06C856623A9F12885A0
:1019100039854A855B857D858E850E9487082CC028
:1019200087E0FE013896DE01119601900D928A95AE
:10193000E1F76C85662301F12091050230E0C901D1
:101940000196877099274091040250E0841795070B
:10195000E1F16D8397E0929FD001939FB00D112428
:10196000AA5FBD4FFE01319601900D929A95E1F765
:10197000809305020E94220A17E080910402909150
:101980000502891779F1189FC00111248A5F9D4FC4
:101990000E94CE0A882331F1E09104021E9FF001DB
:1019A0001124EA5FFD4F208131814281538164819E
:1019B000758186810E9487088091040290E00196DB
:1019C0008770992780930402D8CF0E945008109204
:1019D000050210920402EEE3F2E087E0DF011D92BF
:1019E0008A95E9F72E96E3E00C949B2680914D02B0
:1019F000869586958695089580914D028770089505
:101A000090914D02977081E009F480E008958091F3
:101A10005902089590915902892B80935902089593
:101A200080959091590289238093590208951092CC
:101A30005902089590915802892B80935802089575
:101A400080959091580289238093580208951092AE
:101A50005802089508950E942A0D08950E942B0DA2
:101A6000089590914F02292F2823821729F0982B4F
:101A700090934F020E942E0D089590914F02292FAE
:101A8000282331F08095892380934F020E942E0DE8
:101A9000089580914F02882329F010924F0280E030
:101AA0000E942E0D08950F931F93CF93DF93009103
:101AB000040110910501C091590280915802C82B70
:101AC00080914F02882331F0C82B0E94851D81111F
:101AD0000E94490DF801C083C0910401D091050115
:101AE00048E050E065E472E0CE010E944727892B70
:101AF00059F088E0FE01A5E4B2E001900D928A95CC
:101B0000E1F7CE010E94301DDF91CF911F910F911F
:101B100008950E94530D08950E942A0D08950E9471
:101B20008C0D089590914E02292F282331F0809535
:101B3000892380934E020E948F0D08950E942A0DE2
:101B400008959091C20292FF11C098E0899F900180
:101B50001124262B20934D020E94D90880914D021A
:101B60008695869586950E949E0D08950E94D908B7
:101B7000089510924D0280E00E949E0D089590916C
:101B80004D028095892380934D02282F277069F498
:101B9000981759F09091C20292FF07C086958695DA
:101BA00086950E94E9080E94B90D08959091C2029D
:101BB00092FB222720F9281769F080FB92F9909375
:101BC000C2028091C1029091C2020E94250E82E061
:101BD0000E94BF0D08958091C20282FB882780F980
:101BE00091E089270E94D60D089581E00E94D60DCC
:101BF000089580E00E94D60D08956FEF7FEF80E09A
:101C000090E00E949F27089580E090E00E946B275B
:101C100021E0853E9E4F09F020E0822F089582E06A
:101C200090E00E945D27089583E090E00E945D2788
:101C300090E00895682F83E090E00E948127089546
:101C400084E090E00E946B270895BC0184E090E05E
:101C50000E949F270895AB01BC018FE090E00E9495
:101C600093270895AB01BC0183E190E00E94932784
:101C7000089560E070E0CB010E94320E089560E0AC
:101C800070E0CB010E942B0E0E94390E0895A8E04F
:101C9000B0E0EDE4FEE00C94802665EE7EEF80E09F
:101CA00090E00E949F2760E082E090E00E94812700
:101CB00081E090E090930302809302020E941A0E4A
:101CC00060E074E184E090E00E949F2760E086E09D
:101CD00090E00E94812760E087E090E00E948127E9
:101CE00040E050E0BA0188E090E00E94932760E075
:101CF00083E290E00E94812760E08CE090E00E9407
:101D0000812760E08DE090E00E94812719821A828D
:101D10001B821C821D821E821F82188648E050E0B2
:101D200067E170E0CE0101960E94712740E050E02B
:101D3000BA018FE190E00E9493270E943F0E2896FF
:101D4000E2E00C949C260E94470E0895682F8EE0D6
:101D500090E00E9481270895A6E0B0E0E2EBFEE06B
:101D60000C947E260E94ED1E8C0180915A02909167
:101D70005B020817190781F019821A820E94ED1E72
:101D8000682F49815A81792F80E090E00E94CB042E
:101D900010935B0200935A022696E4E00C949A2674
:101DA0000E94F91E60936702709368028093690233
:101DB00090936A0260936302709364028093650259
:101DC00090936602089581E0089581E008950E944D
:101DD000E50E089508950E94EA0E08950E94EA0E05
:101DE00008950E94EA0E08950E94EA0E08950E9446
:101DF000F40E08950E94F10E0E94F70E08950E94BD
:101E0000EA0E08950E94EA0E08950E94020F0895B6
:101E10000E94FF0E0E94050F08950E94EA0E089589
:101E20008BEC91E10E9436130E940D0F0E94080F67
:101E300008950E94EE0E0E94EB0E0E94EA0E089595
:101E40000E94040E811102C00E94A30E0E940F0E78
:101E500080936B020E94200E9093C2028093C10275
:101E60000E94581B0E94140E0E94A008809100023C
:101E7000909101020E94BE0808950E94E41E0E94F3
:101E800092120E94200F0E94A5040E94031A0E9431
:101E9000FA0E0895A6E0B0E0E0E5FFE00C947726A6
:101EA0000E94E30E811103C00E94AC0E53C00E9439
:101EB000A8128CE5E82E82E0F82E670100E0F6011A
:101EC00011916F01802F0E94E01181270F5F073071
:101ED00019F08823A1F302C0882331F380916B02AB
:101EE00081FD0E94E6110E94E70EA82E10E09924C1
:101EF0009394812F0E94E011B82EF701C080C8266C
:101F000009F100E0DD24D3948C2D8D21A9F0AA20C5
:101F100099F009831A830E94ED1E9C838B839D8216
:101F200091E08B2D8D2109F490E049815A816B81DC
:101F30007C818D810E94CB040F5FDD0C083021F77E
:101F4000F701B0821F5FFFEFEF1AFF0A173089F623
:101F50000E94D00E0E94F91A0E94B2042696EBE06D
:101F60000C9493261F93CF93DF930E94E010EC0113
:101F7000C11580E5D807E8F5C11590E4D90708F048
:101F8000A8C0C03ED10530F5CD3CD10508F094C0C5
:101F9000C83AD10578F4C53AD10508F083C0C130FC
:101FA000D10509F47CC008F4F2C0C430D10508F0B2
:101FB000F1C0EDC0C33CD10508F0E9C0C85AD0E07B
:101FC000CC0FDD1FC05ADE4F0990D881C02DCE0145
:101FD0009464E1C0C11580E2D80708F0CBC0C115F8
:101FE00091E0D90708F06BC0C83ED10508F4D2C013
:101FF000CEC0C03682E5D80728F5C03492E5D907AF
:1020000008F079C0C03282E5D80708F06CC0C1156D
:1020100092E5D90708F481C04C2F4695469580E299
:10202000489FA0011124C37021E030E0C90102C023
:10203000880F991FCA95E2F7EA01C82BD92BCE0168
:102040009D68A9C0C03A82E5D807B8F48C2F8F717B
:10205000C03892E5D90708F07BC08695869590E256
:10206000899F90011124C37081E090E002C0880F25
:10207000991FCA95E2F79A6868C0C03C82E5D80704
:1020800008F46DC0C03E92E5D90708F080C0CF715A
:10209000DD27DC2FCC27CE01806F906A7CC081E0E9
:1020A00090E079C0C55AD0E0CA56DE4F8881C82F6B
:1020B000D0E0CE0190646FC0CE0190656CC08D2FD2
:1020C0000E947C11182FCE0199270E94E0101F71E9
:1020D0005CC0CE0199270E94E010CC27DF70D06A47
:1020E0008C2B9D2B58C0CF71D0E0DC2FCC27CE019C
:1020F000816F906A50C08C2F8F718695869590E283
:10210000899F90011124C37081E090E002C0880F84
:10211000991FCA95E2F79C6818C08C2F8F710E9496
:102120007C1195E0D695C7959A95E1F7CF70D0E0F0
:10213000DC2FCC27282F30E084FF05C084E0220F5D
:10214000331F8A95E1F7D069CE01822B932B23C0F0
:1021500090E0D82FCC27CE01846F906A1CC08C2FC2
:102160008F710E947C118F7190E0D82FCC27CE0107
:10217000906211C08D2F8F710E947C11182FCE019B
:1021800099270E94E0101F719062912B04C080E09B
:1021900090E001C0CE01DF91CF911F91089577307B
:1021A00038F4683028F4462F672F0E9446030895BC
:1021B00080E090E008950E94CF100E94B20F089531
:1021C0008238910569F1B0F48133910509F475C045
:1021D00048F48932910509F467C08A32910509F4FF
:1021E00071C008958533910509F459C0893391056B
:1021F000B9F00895833E910589F138F4803E910548
:10220000D1F0823E910529F10895863E9105C9F1EC
:10221000873E9105D9F1843E910509F06CC027C035
:102220002091C10220FD57C021FD55C02091C2025E
:1022300023FD5BC008958091C10280FD48C080915C
:10224000C20280FF48C08091C10284FD46C083EE77
:1022500051C08091C10282FF3CC0F5CF8091C10284
:1022600082FD37C08091C20280FD35C0ECCF8091E5
:10227000C20281FF36C08091C10284FD2EC087EE6C
:1022800039C08091C10283FF2AC0F5CF8091C1027D
:1022900083FD25C08091C20281FD23C0ECCF8091D7
:1022A000C10285FD22C01FC08091C10285FD1BC0F7
:1022B0008091C20283FF19C00AC08091C10286FDCD
:1022C00016C017C08091C10286FD13C010C089E3FB
:1022D00011C082EE0FC080EE0DC080E00BC086EE14
:1022E00009C084EE07C085E305C089E203C08AE225
:1022F00001C081E390E008959091C10292FF10C067
:1023000041E0282F2471243009F040E031E0282FEB
:102310002871283009F030E0431711F02CE08227B3
:1023200093FF10C041E0282F2471243109F040E0D0
:1023300031E0282F2871283109F030E0431711F0DF
:102340002CE082273091C20230FF10C051E0282FCC
:102350002171213009F050E041E0282F2871283008
:1023600009F040E0541711F029E0822731FF10C036
:1023700041E0282F2171213109F040E031E0282F80
:102380002871283109F030E0431711F029E0822745
:1023900094FD877E089580E00895CF939C01205E90
:1023A00032452032310540F4FB01C581C11105C021
:1023B0008F710E94DA0301C0C1E08C2FCF91089584
:1023C000E82FF0E0E653FD4F80810895089580EAFC
:1023D0008A95F1F7089500C008950E94E7110895C5
:1023E00008950E94F01108950E94F11108950E942D
:1023F000F01108950E94F7110895F894E82FE295DE
:10240000EF70F0E031A1282F2F7081E090E001C043
:10241000880F2A95EAF7982F9095932391A392A17C
:10242000892B82A3789408950F931F93CF93DF9302
:10243000C1EAD1E089918F3F11F00E94FD1181E046
:10244000C83AD807B9F7C9E9D1E001EA11E08991A2
:102450008F3F11F00E94FD110C171D07C1F7DF918E
:10246000CF911F910F910895A0E0B0E0EAE3F2E16F
:102470000C947A268C01C62FD0E0CE018F559E4F4A
:102480007C01FC0190819F3F09F447C0D62EF8944F
:10249000E92FE295EF70F0E081A19F7021E030E03C
:1024A00001C0220F9A95EAF7822B81A382A1209581
:1024B000282322A378940E94EB11E9E9F1E041EA94
:1024C00051E031E0C12C21912F3F89F0A22FA2953C
:1024D000AF70B0E090968C9190E02F7002C095950F
:1024E00087952A95E2F780FD02C0832F01C080E026
:1024F000C82A330F4E175F0731F7F70180818F3FEE
:1025000011F00E94FD1161E0C11001C060E08D2D4D
:102510000E94ED11C00FD11FC882CDB7DEB7E8E031
:102520000C9496260E94141287E0EAECF2E0DF0198
:10253000982F1D929A95E9F7E3ECF2E0DF011D92E6
:102540008A95E9F787E00E94E3120E94FA11089544
:10255000A7E0B0E0EEEAF2E10C947D268E010F5F79
:102560001F4F87E0F80111928A95E9F7F12C6F2D42
:10257000C8010E943412F394F7E0FF12F8CF47E04D
:1025800050E0B80183EC92E00E94472721E00097D9
:1025900009F420E0892B41F087E0F801A3ECB2E0D8
:1025A00001900D928A95E1F747E06AEC72E083ECC6
:1025B00092E00E94E412182F0E94F411812F2796B6
:1025C000E5E00C9499260895EF92FF920F931F93E4
:1025D000CF93DF937C018B01C42F222351F081E044
:1025E00080936E020E94ED1E90936D0280936C02A8
:1025F00004C080916E02811102C080E01AC08091F7
:102600006C0290916D020E947A1E0597B0F3D0E0A3
:10261000AE01B701C8010E944727892B39F0AE01EE
:10262000B701C8010E94542781E001C080E01092E8
:102630006E02CDB7DEB7E6E00C9498260E944A0FF2
:1026400008950E94841E0E9489200E94100F0E94FB
:10265000A3200E943D0F0E94B0200E94B5200E943E
:102660001E130E94CF200E94190FF7CF9093DD0117
:102670008093DC0108950F931F93CF93FB01C581D5
:10268000CC2309F444C08C010E94070D8272F8012A
:10269000E052F847EB30F105D8F5EE59FF4F0C94B6
:1026A00039260E94F51927C0882329F00E94E319D2
:1026B00022C08823D9F30E94D3191DC0882329F092
:1026C0000E94391618C08823D9F30E942A1613C015
:1026D000882329F00E945B160EC08823D9F30E943C
:1026E0004A1609C0882329F00E947D1604C0882359
:1026F000D9F30E946C16C0E00BC0882329F00E9419
:10270000FF14F9CF8823D9F30E94DF14F4CFC1E07E
:102710008C2FCF911F910F910895EF92FF920F93FD
:102720001F93CF93DF938B01682F11110AC04423AD
:1027300029F0E82FF0E0E65EFB4F6491762F862FBC
:1027400075C0212F30E0E82FF0E0442321F0E65E51
:10275000FB4FE491F0E046E0049FC0011124CFEF6D
:10276000D0E0BE010E94EF254BEA4603C001479F1F
:10277000900D1124800F911D800F911D982F990F9E
:10278000890FAE01421B530B4E9FD0014F9FB00DDE
:102790005E9FB00D11249B2F189FA0011124452F7F
:1027A00055278E01041B150B0E9FA0010F9F500D86
:1027B0001E9F500D11247E01E81AF108E29E80014F
:1027C000E39E100DF29E100D1124212F3327C21B02
:1027D000D30BCE9F9001CF9F300DDE9F300D112483
:1027E00062307105A9F050F46115710571F0613026
:1027F0007105C1F47E2F8B2F952F17C064307105A2
:1028000069F048F06630710569F48B2F732F0CC0A6
:102810007E2F832F0AC08E2F752F07C08E2F7B2F00
:10282000932F03C0852F7B2F9E2F692FCDB7DEB747
:10283000E6E00C94982641E00E948D1308950895D7
:102840000E941B14089590910901291B922FE09179
:10285000D501F091D601242F462F682F892F90E0C3
:1028600009950895CF93DF93762FE901682F842F80
:102870000E942014962F672F9E01482F892F0E94B7
:102880002314DF91CF9108958091D102282F2695AE
:10289000269530E02115310519F48370846005C058
:1028A0002B32310524F08370886A8093D102089519
:1028B000A0E0B0E0EEE5F4E10C947A2688E090E048
:1028C0000E9465276B017C0183E290E00E945D27F6
:1028D000282F30E040E050E060E070E080E090E0E1
:1028E00000E20E94A726B22FA32FF42FE52FD62FA8
:1028F000C72F97018601BC29A12BF22B5E2F532BEA
:102900002B2F3A2F4F2F6D2F7C2FCDB7DEB7E8E05E
:102910000C949626A0E0B0E0E0E9F4E10C94762671
:1029200049015A016B017C010E9444148401A401F5
:102930006A2D7B2D88E090E00E94932794014A2D18
:102940005B2DB601C70100E20E94C226622F83E21E
:1029500090E00E948127CDB7DEB7ECE00C94922680
:10296000E1EDF2E025E0208311828FEF8283838303
:102970001482758130E04FEF5FEF60E086819781D0
:102980000E948A1408959091D502933018F49F5FA5
:102990009093D502882391F02091D1023091D202F8
:1029A0004091D3025091D4026091D5027091D60229
:1029B0008091D7029091D8020E948A14089581E0F4
:1029C0000E94C31408959091D502992319F0915053
:1029D0009093D502882391F02091D1023091D202B8
:1029E0004091D3025091D4026091D5027091D602E9
:1029F0008091D7029091D8020E948A14089581E0B4
:102A00000E94E31408950F931F93CF938091D102F6
:102A100080FF09C0E091D901F091DA010995CF91C9
:102A20001F910F910895C0910B010091D501109154
:102A3000D60180910C01C81768F7809109019C2F7D
:102A4000981B20E040E060E0892F90E0F8010995B4
:102A5000CF5FEFCFEF92FF920F931F93CF93DF9350
:102A60009091D10290FF1CC0042F162FD82FC09137
:102A70000B01E090D501F090D60180910C01C817B0
:102A800068F4809109019C2F981B202F412F6D2FF6
:102A9000892F90E0F7010995CF5FEFCF0E940315D2
:102AA000CDB7DEB7E6E00C9498269091D10290FF66
:102AB0000BC0762F682F842F0E941B14962F672F30
:102AC000482F892F0E942A150895CF93DF93EC0198
:102AD000EC81F0E0EB5EFC4F4491E1EDF2E06281CD
:102AE00081810E9455158C818F5F8C83DF91CF91FE
:102AF0000895CF93DF93EC01E1EDF2E04381628131
:102B00008C810E9455158C818F5F8C83DF91CF91D2
:102B10000895CF93DF93EC014091D4029C8190FF04
:102B200002C0842F01C080E091FF02C0642F01C069
:102B300060E092FF40E00E942A158C8190E00196AF
:102B4000877099278C83DF91CF910895A0E0B0E042
:102B5000ECEAF5E10C947B26D82FF62E142FE22E0A
:102B60009091D10290FF66C0E92FE695E695AE2FD1
:102B7000B0E0A855BE4F8C918093AC029C7F9430FE
:102B800061F46D2F7F2D842F0E941B14962F672FC9
:102B9000482F892F0E942A1536C0823019F41091CF
:102BA000D40231C0863019F4D091D2022CC08930C1
:102BB000D9F3893141F5E9518E2F8170D82EE695F0
:102BC000F0E0EB5EFB4FC49100E060910D01061751
:102BD000C0F40C9FC001112470E00E94EF258D2FDE
:102BE000D11002C0860F01C0861B90910B01202FCF
:102BF00030E0290F311D412F6F2D0E9432140F5FDD
:102C0000E4CF0E940315D093D202F092D302109326
:102C1000D402EE2079F02091D1026091D50270911A
:102C2000D6023D2F4F2D512F8091D7029091D8027F
:102C30000E948A14CDB7DEB7E7E00C949726E1ED49
:102C4000F2E09181282F4381628180E1890F0E9407
:102C5000A615089581E00E941F160895E1EDF2E0A7
:102C60009181282F4381628180EF890F0E94A615F0
:102C7000089581E00E942E160895E1EDF2E0628150
:102C800020E1620F08F46FEF282F438181810E94B9
:102C9000A615089581E00E943D160895E1EDF2E049
:102CA000628120E1621B08F460E0282F438181816A
:102CB0000E94A615089581E00E944E160895E1ED48
:102CC000F2E0438120E1420F08F44FEF282F6281A8
:102CD00081810E94A615089581E00E945F160895E3
:102CE000E1EDF2E0438120E1421B08F440E0282FAF
:102CF000628181810E94A615089581E00E9470166C
:102D0000089520E00E94A6150895EF92FF921F9368
:102D1000CF93DF93EC0110E0EE24EA94F12C609164
:102D20000D011617B8F480910B01212F30E0280F08
:102D3000311D70E0C7010E940326962F8C814091BF
:102D4000D4026091D302199F800D11240E94321485
:102D50001F5FE5CF0E9403159A818C8190FF02C00E
:102D60008F5F01C081508C83DF91CF911F91FF90C5
:102D7000EF900895A0E0B0E0E0ECF6E10C94782646
:102D8000FC01828180FF02C0DFEF01C0D1E0C0E022
:102D90000091D5011091D6012AE0A22E80910D015B
:102DA000C81708F044C080910B0190910901891B5C
:102DB0008C0F20E040E060E090E0F801099594E09D
:102DC000E92EF12CB12CCC2ED12C809170028B0DE0
:102DD0008B302CF06A2D0E94E125892F05C087FFDA
:102DE00003C090910D01890F082E000C990BC81695
:102DF000D906B1F480910B019601280F311D809105
:102E0000D4028E9DA0018F9D500D1124559547959C
:102E1000559547956091D3028091D2020E94321459
:102E2000BD0EF1E0EF1AF10881F6CF5FB7CF0E9437
:102E3000031580917002D13031F4811102C080916C
:102E40000D01815007C090E0019660910D0170E086
:102E50000E94032680937002CDB7DEB7EAE00C949F
:102E600094260F931F93CF93DF93C0910B01009192
:102E7000D5011091D60180910C01C81768F480919A
:102E800009019C2F981B20E040E060E0892F90E032
:102E9000F8010995CF5FEFCF10E0C091D501D09137
:102EA000D60160910D01161778F5E12FF0E070E082
:102EB000CF010E94032620910B01820F20916F0207
:102EC000022E000C330BE217F3079CF0209108014F
:102ED000022E000C330B2E173F075CF0282F30E03A
:102EE0004091D4026091D3028091D2020E943214A8
:102EF00009C090910901891B20E040E060E090E06A
:102F0000FE0109951F5FCDCF0E9403152091070197
:102F100080916F02820F80936F0290910801920F4F
:102F20009093080119165CF4082E000C990B40913F
:102F30000D0150E041505109841795071CF021956F
:102F400020930701DF91CF911F910F910895A0E089
:102F5000B0E0EDEAF7E10C947626EC014C81042F09
:102F600010E09801D8010E9447269B01AC010E9405
:102F70005D266B017C01E0E2F0E0E01BF10BA5E5D2
:102F8000B0E09B01AC010E945D264B015C019F01FA
:102F9000DF010E943F269B01AC010E9468269B0135
:102FA000AC012C0D3D1D4E1D5F1DC501B4010E94DD
:102FB0001726822FF22E99E2921728F093E0299F8C
:102FC000900111240DC025E530E0281B3109C9010D
:102FD000880F991F280F391F37FF02C02F5F3F4FFF
:102FE00035952795122F109500E085E5E82EEF180E
:102FF00080910D01081790F401FD02C08E2D01C0D3
:103000008F2D90910B01202F30E0290F311D412F82
:103010006091D3020E9432140F5FEACF0E94031521
:103020008C81811102C091E003C0803219F49FEFBE
:103030009093060190910601890F8C83CDB7DEB77E
:10304000ECE00C9492260F931F93CF93DF938C01A7
:10305000C0E0D0E080910D01282F30E0C217D307E7
:1030600034F5869590E0F801348120910B01C81762
:10307000D9073CF4332371F0CE01820F911D9C01DE
:1030800006C0311107C0FE01E20FF11D9F01409102
:10309000D40205C0CE01820F911D9C0140E06091D9
:1030A000D3028091D2020E9432142196D3CF0E9483
:1030B0000315F801848190E001968170992784833B
:1030C000DF91CF911F910F9108952F923F925F92C0
:1030D0006F927F928F929F92AF92BF92CF92DF9228
:1030E000EF92FF920F931F93CF93DF93FC016280C7
:1030F000548081E08483E5E1F3E07490E4E9F3E057
:10310000E491C091D402C695C158D0E0CC0FDD1F28
:103110002D2E3324812C25E0922EAA24AA94B12CA2
:10312000E719EE2EF12C80910D01881608F091C060
:10313000C82CD12C22E0261568F09C9CF0019D9CA7
:10314000F00D1124EF58FD4F8091D20280838091C1
:10315000D302818351100AC09C9CF0019D9CF00D0C
:103160001124EF58FD4F1382128260C09C9C800195
:103170009D9C100D1124E801CF58DD4F8B818823D1
:10318000F9F081508B832FEF829FC00111246C8155
:1031900070E00E94EF25FB01FF27EB5EFC4F84915E
:1031A000E82FE7192FEFE29FC0011124B7010E9419
:1031B000EF258091D402689FB00111247A8336C034
:1031C0000E942A27B5010E9403268215930574F5F3
:1031D00082E0861588F40E942A27B5010E94032602
:1031E00088830E942A272091D3022695622F70E0BF
:1031F0000E940326280F29839C9CF0019D9CF00DC2
:103200001124EF58FD4F12828091D402843120F0B6
:10321000893C18F088EC01C084E19C9CF0019D9CE5
:10322000F00D1124EF58FD4F8483838380910B01AF
:103230009601280F311D9C9CF0019D9CF00D1124DE
:10324000EF58FD4F4281618180810E943214839446
:103250006ACF0E940315DF91CF911F910F91FF90CC
:10326000EF90DF90CF90BF90AF909F908F907F9026
:103270006F905F903F902F900895E1EDF2E02081F4
:103280002E7F2083318142815381648175818681C3
:1032900097810E948A141092AD020E94031508952E
:1032A000E1EDF2E080818E7F80831092AD020E947A
:1032B000031508951092AD028091AA0281110AC0EF
:1032C00081E08093AA028091D10281708093A9024B
:1032D0000E94501908956091D1026695669570E03C
:1032E0004BE050E08EE091E00E943A27892B19F4E0
:1032F00081E08093AD020E94ED1E9093A402809322
:10330000A30208959091D10290FF3FC09370811164
:1033100002C0946007C08B3210F0986A03C0880F17
:10332000880F982B9093D102662391F02091D102BF
:103330003091D2024091D3025091D4026091D502D3
:103340007091D6028091D7029091D8020E948A147F
:103350006091D1026695669570E04BE050E08EE09A
:1033600091E00E943A27892B19F01092AD0202C019
:103370000E946B1981E08093A6024091D402609173
:10338000D3028091D2020E9481160895682F9091F5
:10339000D1029695969581E0890F8B3208F081E0F5
:1033A0000E948219089581E00E94C6190895682F2D
:1033B0009091D102969596958FEF890F09F48AE244
:1033C0000E948219089581E00E94D719089561E052
:1033D0000E9482190895E1EDF2E08081816080838E
:1033E000869586950E94E71908958091D10280FF05
:1033F00003C00E943D1908950E94EB19089560E0F2
:103400000E94821908958091AB0281113CC00E94F4
:1034100058142093D1023093D2024093D302509398
:10342000D4026093D5027093D6028093D702909312
:10343000D8022C7FA1F40E94B0140E94581420934B
:10344000D1023093D2024093D3025093D4026093BE
:10345000D5027093D6028093D7029093D8020E942F
:1034600044141092AD02E091D301F091D40109957A
:103470008091D10280FF04C0869586950E94FF1935
:1034800081E08093AB020895E1EDF2E080818160FC
:103490008083869586950E94FF1908951092AA024E
:1034A0008091A90281110E94441A0E946B1908950B
:1034B0000F931F93CF93DF938091AD02882309F47C
:1034C00092C08091AC02E091D102E695E695E81BAE
:1034D000E093A502823049F4F0E0EF5EFC4FE49106
:1034E000CE2FD0E005E615E159C0863049F4F0E072
:1034F000E25FFC4FE491CE2FD0E009E715E14EC02A
:10350000893051F4E695F0E0E55FFC4FE491CE2F71
:10351000D0E005E816E142C08F3051F4E695F0E0C6
:10352000E85FFC4FE491CE2FD0E00AEB16E136C005
:10353000853149F4F0E0EB5FFC4FE491CE2FD0E011
:1035400001E317E12BC08831D9F0833239F4E3E08D
:10355000F3E0C591D49109E815E120C08432A9F0C7
:103560008532C1F48E2F63E00E94D525E92FF0E06B
:10357000E050FD4FE491CE2FD0E005E618E10EC0FB
:10358000C8E2D0E007EA17E109C0C4EFD1E003E2E6
:1035900018E104C0C0EDD7E00FE114E18091A6026C
:1035A000882361F01092A6020E94ED1E9093A4025F
:1035B0008093A3021092A8021092A7020E94ED1E0F
:1035C000E091A302F091A4028E1B9F0B8F3F9F47B7
:1035D00050F4EC0FFD1FF093A402E093A30283EAE2
:1035E00092E0F8010995DF91CF911F910F91089515
:1035F00008950E94581A0895539A0895FC01EE0FF9
:10360000FF1F8E0F9F1FFC01E752FD4F6183408318
:1036100022830895E9EDF2E081836083428333964B
:1036200092E0E73FF907C1F708958BB1877F9BB11F
:1036300098602FB7F894E9EDF2E032E0E73FF30746
:1036400089F0319148E09BB9000000C037FF8BB989
:10365000330F000000C000C000C08BB900C04A9505
:1036600091F7EBCF2FBF8FE594E00197F1F700C002
:10367000000008950E94FD0D089580E00E94E01171
:10368000817008950E94A8122FEF86E791E02150E3
:1036900080409040E1F700C000000E94A8120E9404
:1036A0003D1B882321F00E943A1B0E942B1F089586
:1036B0000E94421B0895CF93DF9386319C4709F502
:1036C000EB010E94070D9D81992371F08A7A91E0A8
:1036D00009F490E09093AE02811102C089E201C02A
:1036E00085E30E94CF1D09C08091AE02811102C006
:1036F00089E201C085E30E94D71D0E94890D80E008
:1037000001C081E0DF91CF910895CF93DF93FC0159
:10371000DB0115968C91882309F4DDC09F01305799
:103720002332310508F0D8C0EF010E94200E90939B
:10373000C2028093C102FE01E150F047E232F1057E
:1037400020F4E359FF4F0C9439268091C102816027
:10375000AAC08091C2028860B2C08091C10282601A
:10376000A2C08091C10220C08091C10288609BC02C
:103770008091C2021EC08091C2028260A0C080916E
:10378000C102806190C08091C10280628CC0809132
:10379000C102806488C00E9450088091C102806884
:1037A00082C08091C102886084607DC08091C20225
:1037B0008260816084C08091C1028E7F74C08091DC
:1037C000C202877F7CC08091C1028D7F6CC08091D6
:1037D000C10220C08091C102877F65C08091C20272
:1037E0001EC08091C2028D7F6AC08091C1028F7E0F
:1037F0005AC08091C1028F7D56C08091C1028F7BDB
:1038000052C00E9450088091C1028F774CC08091B5
:10381000C102877F8B7F47C08091C2028D7F8E7FE0
:103820004EC08091C10282FB222720F991E09227AD
:1038300090FB82F990FB83F936C08091C202982FE9
:10384000909591708E7F892B90FB81F938C0809183
:10385000C10286FB222720F991E0922790FB86F98E
:1038600022C00E9450088091C10287FB222720F9C4
:1038700091E0922790FB87F916C081E001C080E0BB
:103880000E94A60E1EC08091C10284FB222720F94F
:1038900091E0922790FB84F906C08091C102982F95
:1038A000909590FB80F98093C1020BC08091C20279
:1038B00083FB222720F991E0922790FB83F98093E4
:1038C000C2028091C1029091C2020E94250E0E9404
:1038D000500880E001C081E0DF91CF9108950F93FF
:1038E0001F93CF93DF93C42FD22FFC0185818823B0
:1038F000B1F04093B1020E94ED1E9093B00280930C
:10390000AF0280E28C0F883008F04DC0C77081E0B4
:1039100001C0880FCA95EAF70E94FF0544C0809154
:10392000B102481330C08091AF029091B0020E9462
:103930007A1E883C910538F510E21D0FCD17B9F0BD
:1039400080E28C0F883040F4C77081E001C0880F9E
:10395000CA95EAF70E940606183010F581E09D2FFF
:10396000977001C0880F9A95EAF70E94FF05802F93
:103970000E94F5051830B8F4D77081E001C0880FB7
:10398000DA95EAF70AC080E28C0F883060F4C770DD
:1039900081E001C0880FCA95EAF70E94060603C0BD
:1039A000802F0E94F505DF91CF911F910F9108950F
:1039B0000F93FC01E851FC47E730F10590F5CB018E
:1039C000E157FF4F0C94392606E221EE41EE6AE101
:1039D0007CE723C007E225EE45EE6BE17CE71DC0E6
:1039E00006E221EE40EE68E17CE717C007E225EE33
:1039F00044EE69E17CE711C006E221EE42EE6CE1A3
:103A00007CE70BC007E225EE46EE6DE17CE705C0E2
:103A100008E221E045EE6EE17CE70E946F1C80E049
:103A200008C0FB018581882319F01092B10201C002
:103A300081E00F9108959093B7028093B6020895A4
:103A4000E091B602F091B702309729F00190F08131
:103A5000E02D0995089580E008950E94201D0895A5
:103A6000E091B602F091B702309721F00280F38125
:103A7000E02D09950895A3E0B0E0E1E4FDE10C94A8
:103A800080262091B4023091B50228173907A1F0A1
:103A90009093B5028093B402E091B602F091B70220
:103AA000309751F023E029839B838A830084F1853A
:103AB000E02DCE01019609952396E2E00C949C2618
:103AC000A3E0B0E0E6E6FDE10C9480262091B2028E
:103AD0003091B30228173907A1F09093B302809375
:103AE000B202E091B602F091B702309751F024E0B3
:103AF00029839B838A830084F185E02DCE01019682
:103B000009952396E2E00C949C26E0910401F09143
:103B10000501329697E080E0915029F0219122230F
:103B2000D9F38F5FF9CF0895882371F020910401B4
:103B300030910501F9013296285F3F4F9191891725
:103B400029F0E217F307D1F780E0089581E00895A6
:103B50009C01FC0132969FEF80E04191461789F06D
:103B60009F3F19F4411101C0982F8F5F8630A9F74C
:103B70009F3F39F0F901E90FF11D97FDFA95628336
:103B8000089508959C012A5F3F4FFC01428146132E
:103B900001C01282019682179307B9F70895682F22
:103BA00080910401909105010E94A81D0895682F3D
:103BB00080910401909105010E94C21D0895E09139
:103BC0000401F0910501329686E0DF011D928A958D
:103BD000E9F7089508950E94EA1D089583E080930F
:103BE0001C016091190170911A0180911B01909143
:103BF0001C010E94EB1D0895811102C081E001C0EB
:103C000082E080931C016091190170911A018091EA
:103C10001B0190911C010E94EB1D08950E94FC1D48
:103C2000089581E080931C016091190170911A013F
:103C300080911B0190911C010E94EB1D08950E9430
:103C4000111E089591E0811101C090E090931B0135
:103C50006091190170911A0180911B0190911C01D2
:103C60000E94EB1D089580911B01089580931A0115
:103C70006091190170911A0180911B0190911C01B2
:103C80000E94EB1D089580911A01089580931901F7
:103C90006091190170911A0180911B0190911C0192
:103CA0000E94EB1D089580911901089508950E94C6
:103CB000561E08950E94571E08950E94561E08958C
:103CC0000E94561E08950E94561E0895CF930E948A
:103CD000601E0E94A8120E945D1EC0E08C2F0E94F0
:103CE000E011811104C0CF5FC730C1F701C081E08E
:103CF000CF910895CF93DF93EC010E94ED1E8C1BB2
:103D00009D0BDF91CF91089585B7806885BF85B7FA
:103D1000806885BF08951F920F920FB60F921124ED
:103D20008F939F93AF93BF938091B802811113C07B
:103D30008091F7029091F802A091F902B091FA02F5
:103D40004196A11DB11D8093F7029093F802A093B4
:103D5000F902B093FA02BF91AF919F918F910F90AA
:103D60000FBE0F901F9018958091FF02843031F1A3
:103D70000E9481041092B80220E488E190E00FB61E
:103D8000F894A895809360000FBE2093600083B7DD
:103D9000817F846083BF83B7816083BF7894889577
:103DA00083B78E7F83BF0FB6F894A895809160008B
:103DB000886180936000109260000FBE08950E9499
:103DC00050080E948A04089582E084BD93E095BD66
:103DD0009AEF97BD80936E0008952FB7F894809165
:103DE000F7029091F802A091F902B091FA022FBF68
:103DF00008952FB7F8946091F7027091F8028091BE
:103E0000F9029091FA022FBF089578941F920F92B1
:103E10000FB60F9211248F939F93AF93BF9380910E
:103E2000F7029091F802A091F902B091FA0201967E
:103E3000A11DB11D8093F7029093F802A093F9029F
:103E4000B093FA02BF91AF919F918F910F900FBEE7
:103E50000F901F90189587E797E79093010880933C
:103E600000089AE088E10FB6F894A8958093600066
:103E70000FBE90936000FFCF9AE088E10FB6F894F0
:103E8000A895809360000FBE90936000FFCF0895C7
:103E900008959B019091FF029430F1F48F7080930C
:103EA000E9008FEF9091E800815095FD06C095EDF7
:103EB0009A95F1F700008111F5CF8091E80085FF18
:103EC0000BC0BA01C90140E050E00E944721809137
:103ED000E8008E778093E800089543E050E0BC014D
:103EE00082E00E94491F0895CF93DF93EC010E9466
:103EF000331E48E050E0BE0181E00E94491F88E087
:103F0000FE01A9EBB2E001900D928A95E1F7DF91F5
:103F1000CF9108958091FE02811109C00E94D222A2
:103F20000E942F238091E20084608093E200089534
:103F30001092FE0208950E941F1E81E00E94221E20
:103F400008956091FB0281E0611101C080E00E9450
:103F5000EE1D08959091FF0281E0943009F080E019
:103F60006091FB020E94FC1D089542E061EC81E03B
:103F70000E944B2242E261EC82E00E944B2290912F
:103F8000FF0281E0943009F080E06091FB020E9422
:103F90000E1E089580910103833009F461C030F44E
:103FA000813071F0823009F49BC008958A3009F4A1
:103FB00087C08B3009F46CC0893009F0A9C020C0DB
:103FC00080910003813A09F0A3C08091E800877FC7
:103FD0008093E8008091040390910503892B21F4DC
:103FE00068E089EB92E003C060E080E090E070E080
:103FF0000E948C218091E8008B778093E8000895DF
:1040000080910003813209F083C080910403909174
:104010000503029708F07CC08091E800877F8093B9
:10402000E8008091E80082FD05C08091FF028111C7
:10403000F8CF6EC02091F3008091F20090E0922BB7
:10404000029731F48091F100813011F0863021F433
:104050008091F1000E94361E8091E8008B7754C059
:1040600080910003813A09F053C08091040390913C
:104070000503892B09F04CC08091E800877F80936D
:10408000E8008091E80080FFFCCF0E94331E37C01B
:10409000809100038132E1F5809104039091050342
:1040A000892BB1F58091E800877F8093E8000E941A
:1040B0008022809102030E94221E0E9450080895CF
:1040C00080910003813221F58091E800877F809301
:1040D000E8000E948022809103030E94461E0895FA
:1040E00080910003813AA1F48091E800877F80935A
:1040F000E8008091E80080FFFCCF0E94531E80936F
:10410000F1008091E8008E778093E8000E94802281
:10411000089584B7877F84BF0FB6F894A8958091DF
:104120006000886180936000109260000FBE90E094
:1041300080E80FB6F89480936100909361000FBE01
:104140000E94111E08950E94D2220E942F23E2EEA7
:10415000F0E080818460808378940E94BA2508957D
:104160008DE191E00E941B1D08958091FF02853032
:10417000A9F48091FF02853079F40E94B41E0E9458
:10418000661E8823B1F38091FD02882391F30E947B
:1041900031210E945008EDCF0E94DF1E089508953E
:1041A0009A0140910603509107030E94D820089578
:1041B000492F552743305105C9F060F4413051056E
:1041C00081F04230510509F044C08BE390E042E4B5
:1041D00055E043C041325105E1F04232510549F109
:1041E00038C082E190E04DE755E037C09927813033
:1041F000910549F028F0029761F5EAE1F5E005C084
:10420000EEE3F5E002C0E0E3F5E0849190E0AF0179
:1042100024C06115710541F061307105D1F489E068
:1042200090E04DE655E019C089E090E044E555E0A6
:1042300014C06115710541F06130710551F482E3DC
:1042400090E04FE855E009C084E490E041EC55E08F
:1042500004C080E090E040E050E0F90151834083E9
:10426000089580E189BD82E189BD09B400FEFDCFDA
:104270008091D8008F7D8093D8008091E00082608B
:104280008093E0008091E00081FDFCCF0895A0E0E4
:10429000B0E0EDE4F1E20C947A26EC018B017A01B6
:1042A0000E949F22811133C0E114F10439F0F7011B
:1042B00080819181081B190BC80FD91FC12CD12CEB
:1042C0000115110519F18091E80085FD16C0809156
:1042D000E8008E778093E800E114F10449F0F701DB
:1042E00080819181C80ED91ED182C08285E00FC025
:1042F0000E949F22882321F30AC089918093F100B4
:1043000001501109FFEFCF1ADF0ADACF80E0CDB7F5
:10431000DEB7E8E00C94962620910603309107035F
:104320002617370748F06115710539F42091E80028
:104330002E772093E80001C0B901FC0120E061154F
:10434000710579F18091FF028823F1F18530F1F157
:104350008091E80083FD3CC08091E80082FD2EC082
:104360008091E80080FFEBCF2091F3008091F20074
:1043700090E0922B6115710551F08830910538F469
:1043800021912093F100615071090196F3CF21E052
:10439000089709F020E08091E8008E778093E8008C
:1043A000CECF2111CFCF0AC08091FF02882361F0C8
:1043B000853061F08091E80083FD0AC08091E800BB
:1043C00082FFF2CF80E0089582E0089583E00895AF
:1043D00081E00895209106033091070326173707DF
:1043E00048F06115710539F42091E8002E7720938B
:1043F000E80001C0B901FC0120E06115710591F1EF
:104400008091FF02882309F440C0853009F43FC041
:104410008091E80083FD3DC08091E80082FD2FC0BF
:104420008091E80080FFE9CF2091F3008091F200B5
:1044300090E0922B6115710559F08830910540F498
:1044400024912093F1003196615071090196F2CFC9
:1044500021E0089709F020E08091E8008E778093B2
:10446000E800CBCF2111CCCF0AC08091FF02882376
:1044700061F0853061F08091E80083FD0AC0809191
:10448000E80082FFF2CF80E0089582E0089583E0A3
:10449000089581E00895982F973068F59093E9008A
:1044A000981739F07091EC002091ED005091F000D8
:1044B00003C0242F762F50E021FD02C09F5FECCF78
:1044C0003091EB003E7F3093EB003091ED003D7F6B
:1044D0003093ED003091EB0031603093EB0070933E
:1044E000EC002093ED005093F0002091EE0027FDAA
:1044F000E5CF80E008958F708093E90081E0089512
:104500008091000387FF11C08091E80082FD05C003
:104510008091FF028111F8CF11C08091E8008B7764
:104520000BC08091FF02882349F08091E80080FF52
:10453000F8CF8091E8008E778093E800089520916D
:10454000E4003091E50095E64091EC00842F817005
:1045500040FF23C08091E80080FD1DC08091FF02D4
:10456000882399F0853099F08091EB0085FD11C08A
:104570004091E4005091E5002417350729F391504C
:1045800011F09A01E1CF84E0089582E0089583E07C
:10459000089581E0089580E008954091E80042FF89
:1045A000DDCF08950E9441230E944923E0EEF0E010
:1045B000808181608083E8EDF0E080818F77808367
:1045C00019BCA7EDB0E08C918E7F8C9380818F7E9B
:1045D00080831092FE0208950F931F93CF93DF9371
:1045E0000E9441230E944923C8EDD0E088818F7743
:1045F000888388818068888388818F7D888319BCBF
:104600001092FF021092FB021092FD021092FC0227
:1046100000EE10E0F80180818B7F808388818160CB
:10462000888342E060E080E00E944B22E1EEF0E00F
:1046300080818E7F8083E2EEF0E0808181608083E4
:10464000808188608083F80180818E7F808388816B
:1046500080618883DF91CF911F910F910895E8EDDC
:10466000F0E080818F7E8083E7EDF0E080818160E3
:10467000808384E082BF81E08093FE020E94EC226E
:104680000895E8EDF0E080818E7F80831092E20053
:1046900008951092DA001092E10008951F920F928F
:1046A0000FB60F9211242F933F934F935F936F9305
:1046B0007F938F939F93AF93BF93EF93FF938091DB
:1046C000E10082FF0BC08091E20082FF07C0809171
:1046D000E1008B7F8093E1000E94B9258091DA0090
:1046E00080FF1FC08091D80080FF1BC08091DA003E
:1046F0008E7F8093DA008091D90080FF0DC080E129
:1047000089BD82E189BD09B400FEFDCF81E08093BF
:10471000FF020E948A1F05C019BC1092FF020E946E
:10472000981F8091E10080FF19C08091E20080FF16
:1047300015C08091E2008E7F8093E2008091E200BC
:1047400080618093E2008091D80080628093D800DD
:1047500019BC85E08093FF020E94A11F8091E100B7
:1047600084FF30C08091E20084FF2CC080E189BDCD
:1047700082E189BD09B400FEFDCF8091D8008F7D14
:104780008093D8008091E1008F7E8093E10080913A
:10479000E2008F7E8093E2008091E200816080934E
:1047A000E2008091FB02882311F084E007C0809131
:1047B000E30087FD02C081E001C083E08093FF0237
:1047C0000E94AA1F8091E10083FF29C08091E2002E
:1047D00083FF25C08091E100877F8093E10082E024
:1047E0008093FF021092FB028091E1008E7F809304
:1047F000E1008091E2008E7F8093E2008091E200F0
:1048000080618093E20042E060E080E00E944B2201
:104810008091F00088608093F0000E949B1FFF91C0
:10482000EF91BF91AF919F918F917F916F915F9128
:104830004F913F912F910F900FBE0F901F901895A1
:104840001F920F920FB60F9211242F933F934F9305
:104850005F936F937F938F939F93AF93BF93CF9308
:10486000DF93EF93FF93C091E900CF708091EC004C
:10487000D82FD17080FDD0E81092E9008091F0002F
:10488000877F8093F00078940E9464241092E9005E
:104890008091F00088608093F000CD2BCF70C093A2
:1048A000E900FF91EF91DF91CF91BF91AF919F917F
:1048B0008F917F916F915F914F913F912F910F90C9
:1048C0000FBE0F901F901895AAE2B0E0EAE6F4E25E
:1048D0000C947F26E0E0F3E08091F100819323E0E7
:1048E000E830F207C9F70E94CA1F8091E80083FFF1
:1048F0002EC18091000390910103492F50E04A306E
:10490000510508F024C1FA01EA56FF4F0C943926EC
:10491000803821F0823809F01AC108C08091FC0269
:104920009091FD02992389F082600FC08091040369
:104930008F70873008F00BC18093E9008091EB0005
:1049400085FB882780F91092E9009091E800977F15
:104950009093E8008093F1001092F100D1C0282FCD
:104960002D7F09F0F4C0882319F0823061F0EFC088
:1049700080910203813009F0EAC0933009F080E0B1
:104980008093FD022EC08091020381112AC0809184
:1049900004038F702FEF280F263008F0D8C08093C3
:1049A000E9002091EB0020FF1CC0933021F480919E
:1049B000EB00806214C09091EB0090619093EB004B
:1049C00021E030E0A90102C0440F551F8A95E2F7AB
:1049D0004093EA001092EA008091EB008860809397
:1049E000EB001092E9008091E800877F8093E80057
:1049F0000E948022ACC08111AAC0109102031F77CF
:104A00008091E3008078812B8093E3008091E8001F
:104A1000877F8093E8000E9480228091E80080FFD9
:104A2000FCCF8091E30080688093E300111102C005
:104A300082E001C083E08093FF0289C08058823009
:104A400008F085C080910203909103038C3D53E0F0
:104A5000950779F583E08A838AE289834FB7F894D2
:104A6000DE01139620E03EE051E2E32FF0E05093A8
:104A70005700E49120FF03C0E295EF703F5FEF70B5
:104A80008E2F90E0EA3010F0C79601C0C0968D934B
:104A90009D932F5F243149F74FBF8091E800877FB6
:104AA0008093E8006AE270E0CE0101960E948C21BA
:104AB00016C06091040370910503AE014F5F5F4F14
:104AC0000E94D020BC01892B09F441C09091E800DC
:104AD000977F9093E80089819A810E94EA218091D2
:104AE000E8008B778093E80032C0803881F58091B0
:104AF000E800877F8093E8008091FB028093F100BB
:104B00008091E8008E7772CF811121C080910203DD
:104B10009091030399270297D4F48091E800877F4E
:104B20008093E800809102038093FB020E94802220
:104B30008091FB02811106C08091E30087FD02C0D5
:104B400081E001C084E08093FF020E94B51F809144
:104B5000E80083FF0AC08091E800877F8093E80027
:104B60008091EB0080628093EB00AA96E3E00C94C6
:104B70009B260895CF938091FF028823A1F0C091D6
:104B8000E900CF709091EC00892F817090FD80E852
:104B9000C82B1092E9008091E80083FD0E946424F4
:104BA000CF70C093E900CF910895991B79E004C0BC
:104BB000991F961708F0961B881F7A95C9F780955C
:104BC000089587FB082E062687FD819567FD619570
:104BD0000E94D5250EF4919507FC81950895AA1B96
:104BE000BB1B51E107C0AA1FBB1FA617B70710F0D8
:104BF000A61BB70B881F991F5A95A9F7809590950A
:104C0000BC01CD01089597FB072E16F4009407D040
:104C100077FD09D00E94EF2507FC05D03EF4909562
:104C200081959F4F0895709561957F4F0895A1E2FA
:104C30001A2EAA1BBB1BFD010DC0AA1FBB1FEE1F16
:104C4000FF1FA217B307E407F50720F0A21BB30B61
:104C5000E40BF50B661F771F881F991F1A9469F7DD
:104C600060957095809590959B01AC01BD01CF0139
:104C70000895EE0FFF1F0590F491E02D09940E9416
:104C80004726332312F48A1B9B0B0C945826A29FB1
:104C9000B001B39FC001A39F700D811D1124911D10
:104CA000B29F700D811D1124911D08950E94472609
:104CB000B7FF0895821B930B08950E944726A59F76
:104CC000900DB49F900DA49F800D911D1124089507
:104CD000B7FF0C945D260E945D26821B930B0895FE
:104CE0002F923F924F925F926F927F928F929F92FC
:104CF000AF92BF92CF92DF92EF92FF920F931F93EA
:104D0000CF93DF93CDB7DEB7CA1BDB0B0FB6F8949A
:104D1000DEBF0FBECDBF09942A88398848885F84DA
:104D20006E847D848C849B84AA84B984C884DF804B
:104D3000EE80FD800C811B81AA81B981CE0FD11D2F
:104D40000FB6F894DEBF0FBECDBFED0108950F93EF
:104D5000083090F0982F872F762F652F542F432FF0
:104D6000322F22270850F4CF220F331F441F551F24
:104D7000661F771F881F991F0A95B2F70F91089534
:104D800097FB10F8169400080F93083098F008501D
:104D9000232F342F452F562F672F782F892F902DB3
:104DA000F4CF05949795879577956795579547958F
:104DB000379527950A95AAF70F9108958F929F929C
:104DC000AF92BF92CF92DF92EF92FF92CF93DF9399
:104DD000EC01688179818A819B816115710581056A
:104DE000910521F464E279ED8BE597E02DE133EF55
:104DF00041E050E00E94B52749015A019B01AC01F6
:104E0000A7EAB1E40E945D266B017C01ACEEB4EF31
:104E1000A50194010E946B26DC01CB018C0D9D1D28
:104E2000AE1DBF1DB7FF03C00197A109B04888831D
:104E30009983AA83BB839F77DF91CF91FF90EF90F7
:104E4000DF90CF90BF90AF909F908F9008950E9479
:104E5000DE26089580E091E00E94DE260895A0E01D
:104E6000B0E08093000190930101A0930201B09300
:104E700003010895FC014150504030F001900616A6
:104E8000D1F73197CF010895882799270895FB011D
:104E9000DC0104C08D910190801921F441505040F3
:104EA000C8F7881B990B0895FB01DC0102C0019033
:104EB0000D9241505040D8F70895F999FECF92BD18
:104EC00081BDF89A992780B50895A6E1B0E044E045
:104ED00050E00C94A727A8E1B0E042E050E00C9429
:104EE000A727DC01A40FB51F4150504048F0CB016B
:104EF000840F951F2E910E94822741505040D0F779
:104F00000895262FF999FECF92BD81BDF89A019799
:104F100000B4021639F01FBA20BD0FB6F894FA9A01
:104F2000F99A0FBE08950396272F0E9482270E94A8
:104F30008127252F0E948227242F0C9482270196F7
:104F4000272F0E9482270C948127DC01CB01FC01D2
:104F5000F999FECF06C0F2BDE1BDF89A319600B4D2
:104F60000D9241505040B8F70895052E97FB1EF45E
:104F700000940E94CC2757FD07D00E94172607FCFB
:104F800003D04EF40C94CC27509540953095219544
:104F90003F4F4F4F5F4F0895909580957095619565
:0C4FA0007F4F8F4F9F4F0895F894FFCF74
:104FAC00010000005002010102000A000A0A011966
:104FBC001A1B1C1D1E1F20212200000100431E7401
:104FCC001F471F481F6D1FE200E900EA00B500B63D
:104FDC0000B700CD008301CC008A0192019401211D
:104FEC0002230224022502260227022A02B300B45D
:104FFC00006F0070009F01CB019F02A00281828391
:10500C00E200E900EA00B500B600B700CD0083016C
:10501C00CC008A0192019401210223022402250270
:10502C00260227022A02B300B4006F0070009F0111
:10503C00CB019F02A002818283F4F5F6F731333263
:10504C003690946697C634350001020202020606B9
:10505C00060909090909090F0F0F0F0F0F1515156F
:10506C00181919191919191919191923242525256C
:0C507C00252525FC1AFE1A0A1B151B0036
:00000001FF
