:100000000C9408030C9425030C9425030C942503ED
:100010000C9425030C9425030C9425030C942503C0
:100020000C9425030C9425030C9420240C94F224A6
:100030000C945D1F0C9425030C9425030C9425034C
:100040000C9425030C9425030C9425030C94250390
:100050000C9425030C94D71F0C9425030C942503B2
:100060000C9425030C9425030C9425030C94250370
:100070000C9425030C9425030C9425030C94250360
:100080000C9425030C9425030C9425030C94250350
:100090000C9425030C9425030C9425030C94250340
:1000A0000C9425030C9425030C942503A006A006AC
:1000B000CC06CC062C073208320832084A07C207A1
:1000C000D307D3079E13A113A613AB13B013B51315
:1000D000BA13BF13C413CA13CF13AD1C1F1DB51C15
:1000E0007F1C831CB91C861CBC1CC71C911C151DC5
:1000F000951CCB1C991CCF1CF91C9D1CD31C031DEB
:10010000A31CD91CE31C8A1CC01C8D1CC31CA81C6E
:10011000DE1CEF1C0F1D111D7B1CB11C281DC21DF8
:10012000C81DB61DBC1DCE1DD41DDA1D5A25812546
:10013000792681257926CD25F0257926472656264C
:100140000000000029003B003E00400045002D005B
:100150002B0014001A000800150017001C001800DE
:10016000390004001600070009000A000B000D000A
:10017000E1001D001B000600190005001100100021
:100180002E004A004D004C000C00120013002A0003
:100190000E000F0028000000360037003800000075
:1001A000E000E300E2002C00C252C15234003300F0
:1001B000000000000000000000000000000000003F
:1001C00001000000520000000000000000000000DC
:1001D0000100500051004F0000000000000000002E
:1001E000010000000000000000000000000000000E
:1001F00000000000000001000000000000000100FD
:1002000000000000010000000000000031000000BC
:1002100001000100010001000100010001000100D6
:1002200000000000000000000000000000000000CE
:1002300001001E001F0020002100220023002400D6
:1002400001002D002E002F003000310000000000C2
:10025000010000000000000000000000000000009D
:10026000000000000000010025002600270001001A
:10027000000000000100000000000000010000007C
:100280000100010001000100010001000100010066
:10029000000000000000000000000000000000005E
:1002A000010000000000000000000000000000004D
:1002B000010000000000000000000000000000003D
:1002C000010000000000000000000000000000002D
:1002D000000000000000010000000000000001001C
:1002E000000000000100000000000000010000000C
:1002F00001000100010001000100010001000100F6
:100300001E0F0500047F3F1F643214643214783CD2
:100310001E1E140A052223252628292A2C2D2F30BB
:1003200032333536383A3B3D3E4042434547494AF1
:100330004C4E5051535557595A5C5E606264666822
:10034000696B6D6F71737577797B7D7F818385872D
:10035000898A8C8E90929496989A9C9E9FA1A3A530
:10036000A7A8AAACAEAFB1B3B4B6B8B9BBBCBEBF58
:10037000C1C2C3C5C6C7C9CACBCCCDCED0D1D2D2DB
:10038000D3D4D5D6D7D7D8D9D9DADADBDBDBDCDCE6
:10039000DCDCDCDDDDDDDDDCDCDCDCDCDBDBDBDA9E
:1003A000DAD9D9D8D7D7D6D5D4D3D2D2D1D0CECD09
:1003B000CCCBCAC9C7C6C5C3C2C1BFBEBCBBB9B816
:1003C000B6B4B3B1AFAEACAAA8A7A5A3A19F9E9C9B
:1003D0009A98969492908E8C8A89878583817F7D66
:1003E0007B79777573716F6D6B6968666462605E47
:1003F0005C5A5957555351504E4C4A494745434210
:10040000403E3D3B3A3836353332302F2D2C2A29A9
:100410002826252322FFAA7F554004030201000558
:1004200006070809000101010101010101010202A1
:100430000202020202020203030303030303030492
:10044000040404040404050505050506060606065D
:10045000070707070708080808090909090A0A0A17
:100460000B0B0B0C0C0C0D0D0D0E0E0E0F0F0F10B9
:100470001011111112121313141415151616171743
:10048000181819191A1A1B1B1C1D1D1E1E1F2020AF
:10049000212222232424252626272829292A2B2CF9
:1004A0002D2D2E2F30313232333435363738393A1C
:1004B0003B3C3D3E3F404142434445464748494A14
:1004C0004C4D4E4F50515354555658595A5B5D5EE2
:1004D0005F616264656668696B6C6D6F707273757D
:1004E00077787A7B7D7E8082838587888A8C8E8FE1
:1004F00091939596989A9C9EA0A2A3A5A7A9ABAD0F
:10050000AFB1B3B5B7BABCBEC0C2C4C6C9CBCDCFFC
:10051000D1D4D6D8DBDDDFE2E4E7E9EBEEF0F3F5AA
:10052000F8FAFDFF1403720065007600690075009B
:100530006E0067003500330000000C036700740094
:1005400069007000730000000403090409023B0005
:10055000020100A0FA0904000001030101000921C1
:10056000110100012244000705810308000109046C
:1005700001000103000000092111010001223200E5
:100580000705820320000112010002000000089408
:100590004E094E01000102000105010980A10185FB
:1005A0000319012AB700150126B7009501751081BE
:1005B00000C0050C0901A101850419012AA002153A
:1005C0000126A002950175108100C005010906A150
:1005D00001050719E029E715002501950875018136
:1005E000029501750881010507190029FF150026EC
:1005F000FF009506750881000508190129051500F9
:100600002501950575019102950175039101C000C1
:1006100011241FBECFEFDAE0DEBFCDBF11E0A0E0B6
:10062000B1E0E2E6F1E502C005900D92AC3DB10704
:10063000D9F723E0ACEDB1E001C01D92AC30B207B8
:10064000E1F70E946E130C94AF280C9400004FEF5A
:1006500060E08AE70E94F6150895CF93DF9323E0C8
:1006600042E061E00E944D0AEC010E94BF0481302B
:1006700079F030F0823041F0833069F440E00CC012
:100680004FEF60E08AE70AC04FEF60E080E006C00D
:1006900040E060E002C04FEF6FEF8FEF0E94F61571
:1006A000CE01DF91CF9108958430C8F46730B8F45B
:1006B0004830A8F4E62FF0E097E0899FE00DF11DA7
:1006C000112483E0EE0FFF1F8A95E1F7E40FF11D7F
:1006D000EE0FFF1FE05CFE4F85919491089581E03D
:1006E00090E008950E945403089581E0089581E008
:1006F00008950E94770308950E94770308950E9449
:100700007C0308950E94770308950E94770308955B
:1007100008950E94880308950E948803089508950B
:100720000E948F030895A6E0B0E0E9E9F3E00C949D
:10073000512749835A839E833091E30189819A81AD
:10074000311115C03E81332359F0222349F00E9414
:10075000ED09182F682F89819A810E94C90903C069
:100760000E94DB09182F69817A81812F04C00E94C1
:10077000ED0969817A810E941C112696E3E00C94B0
:100780006D27FC01262F4081518162817381848114
:1007900095810E9493030895CF93DF93EC0161E06C
:1007A0000E94C103BE010E948203882341F061E0E0
:1007B000CE010E94C103BE010E947F0302C080E0FF
:1007C00090E08170DF91CF9108950F931F93CF93A5
:1007D000DF93EC0160E00E94C1038C01BE010E9426
:1007E0008903BE01C8010E948C03DF91CF911F9144
:1007F0000F91089521E030E0A90102C0440F551F78
:100800008A95E2F7CA010E94F0080895CF93C82F95
:1008100081E090E00C2E02C0880F991F0A94E2F745
:100820000E946A0E8C2F0E94FA03CF91089581E0F6
:1008300008950E94170408950E9417040895CF9305
:10084000C82F0E94A0088C2F0E9419048C2F0E9490
:100850001C042FEF84E39CE0215080409040E1F79E
:1008600000C00000CF91089581E00E941F040E9403
:10087000FD1F089580E00E941F040E940E2008952D
:100880000F931F93CF93DF938C0161E00E94C1030C
:10089000EC01F801858181110E94CA1BB801CE01CB
:1008A0000E947903882399F1B801CE010E94850343
:1008B000882369F1B801CE010E94AA1D882339F16D
:1008C000B801CE010E94571C882309F1B801CE015E
:1008D0000E942D1C8823D9F0B801CE010E948813F4
:1008E0008823A9F0B801CE010E941A12882379F05A
:1008F000F8018581882349F1C330FCE7DF07D9F08F
:1009000060F4C115ECE7DE0721F40E94340480E0B6
:100910001FC0C130DC4789F018C0CB358CE7D80741
:1009200091F0CC35ECE7DE0759F0CA35DC4769F4C5
:100930000E94450E0AC00E944D0E0E943A04E7CF65
:100940000E943B0E02C00E94490EC8010E9475031E
:10095000DF91CF911F910F9108950E9490030E9403
:100960002C1F0E94FB040E941C1A08950E94FF0481
:100970000E94101B0E948F030E94351F0895292F8B
:1009800033272115310519F0C90148E001C040E0C5
:100990009C0164E0369527956A95E1F721153105AC
:1009A00011F04C5FC9019C01369527953695279526
:1009B0002115310511F04E5FC9019C01369527952F
:1009C000232B09F04F5F842F089581E00895089547
:1009D000CF93DF93D82F0E94E504C82F882319F006
:1009E0008D2F0E94E7048C2FDF91CF9108950895F9
:1009F0000E94E804089580E00E94F80408950E948F
:100A0000F21D0E94F8040895CF930E94F21DC82F92
:100A10008091DE01C81779F0C093DE010E94CB1FE0
:100A20006093DF017093E0018093E1019093E20114
:100A30008C2F0E94F804CF910895ADE0B0E0E3E27E
:100A4000F5E00C945227488759876A877B878C8703
:100A50009D8791110E94770DCE01019627E0FC0140
:100A600011922A95E9F726E0FE013896DC01019003
:100A70000D922A95E1F72D8121110AC029813A8131
:100A80004B815C816D817E818F810E94C10C04C08D
:100A90000E94CC038111F2CF2D96E2E00C946E27D8
:100AA000FC012481213021F4808191810E941F0A60
:100AB0000895CF93882309F47FC0C82F8238A1F40A
:100AC0000E94FF1D81FD78C089E30E94A11E0E9443
:100AD000D90D2FEF87EE93E0215080409040E1F751
:100AE00000C0000089E315C08338C1F40E94FF1DD7
:100AF00080FD62C083E50E94A11E0E94D90D2FEFE8
:100B000081EE94E0215080409040E1F700C0000069
:100B100083E50E94A91E0E94D90D4EC08438A1F41D
:100B20000E94FF1D82FD48C087E40E94A11E0E9412
:100B3000D90D2FEF81EE94E0215080409040E1F7F5
:100B400000C0000087E4E5CF8CEF8C0F813A70F491
:100B50008C2F0E94661E882329F08C2F0E94A91ECC
:100B60000E94D90D8C2F0E94A11ED5CF80E28C0F40
:100B7000883048F4C77081E001C0880FCA95EAF751
:100B80000E945A0DC8CFEBE5EC0FE33040F4F0E0E3
:100B9000E35AFE4F808190E00E940D1E0DC0C85A9E
:100BA000CB3150F4EC2FF0E0EE0FFF1FE95DFE4F6C
:100BB000808191810E94321ECF910895882309F48B
:100BC0004DC0823859F40E94FF1D81FF47C089E360
:100BD0000E94A11E0E94D90D89E30CC0833879F4CC
:100BE0000E94FF1D80FF3AC083E50E94A11E0E9463
:100BF000D90D83E50E94A91E0E94D90D089584385D
:100C000059F40E94FF1D82FF29C087E40E94A11EA3
:100C10000E94D90D87E4EECF9CEF980F913A50F3E4
:100C200090E2980F983050F4877091E001C0990FCE
:100C30008A95EAF7892F0E94600DDECF9BE5980F19
:100C4000933028F480E090E00E940D1E0895885AA9
:100C50008B3120F480E090E00E94321E08951F93B3
:100C6000CF93DF93182FEB010E945905209741F095
:100C70008FE99FE00197F1F700C000002197F6CFC0
:100C8000812F0E94DE05DF91CF911F910895893356
:100C900019F060E070E002C060E570E00E942F068D
:100CA0000895882321F00E945A0D0E94D90D0895BD
:100CB000882321F00E94600D0E94D90D0895A0E0C4
:100CC000B0E0E5E6F6E00C944C277C01062FC72F38
:100CD000FC01D581168112951F700E94500D88234A
:100CE000F9F0DD23E9F08C2F807F803461F080E221
:100CF000800F8830A8F08C2F807E803221F4023063
:100D000078F0112369F08091C60282FF09C082E069
:100D10000E940F0E0E94500D91E0D82ED92601C0DE
:100D2000D12CCC2EC2948FE0C8228C2D90E08C3038
:100D3000910508F097C1FC01EA5AFF4F0C940B276C
:100D40008C2F807FCF70882311F0C295C07FDD2368
:100D500099F0CC2309F472C180E2800F883010F042
:100D6000011104C08C2F0E945A0D03C08C2F0E94C9
:100D70006A0D0E94D90D62C1802F0E94DE05CC232E
:100D800009F470C180E2800F883038F1002329F126
:100D90008C2F0E94700D24C08C2F807FCF708032EA
:100DA00011F0C295C07F002319F0013099F13BC0CA
:100DB0008091C60282FD17C0DD2349F0CC2329F0C3
:100DC0008C2F0E945A0D0E94D90D80E038C180E01E
:100DD0000E94DE05CC2309F445C18C2F0E94600DD2
:100DE0000E94D90D3FC1DD2349F0112301F11130DB
:100DF00009F038C18C2F0E94810D34C1111132C10C
:100E00008C2F0E9458068C2F0E948D0D8C2F0E94D3
:100E1000E20D28C1DD2321F0123008F023C107C004
:100E2000111120C115C0DD2331F0111107C18C2F24
:100E30000E94510617C1112359F0093309F00FC15F
:100E4000FFEF27EE83E0F15020408040E1F705C13D
:100E50008C2F0E94580606C18C2F8695869583702C
:100E600019F0813061F0FEC0DD2321F0802F9C2F2E
:100E7000937002C080E090E00E940D1EFCC0DD2354
:100E800021F0802F9C2F937002C080E090E00E94A0
:100E9000321EF1C08C2F8370B9F5D111E7C0402FFD
:100EA000429546954770440F440F202F2F70822F94
:100EB00090E09C01042E02C0220F331F0A94E2F737
:100EC00004FF0AC08FE090E002C0880F991F4A9586
:100ED000E2F78095909502C080E090E0C695C695B7
:100EE000C370822B932BC23049F058F4C13019F0F3
:100EF0000E94FC08BBC00E94F308B8C00E9405090C
:100F0000B5C00E94F008B2C0DD2319F08C2F8170AB
:100F100001C08695882309F4A9C0402F42954695C3
:100F20004770440F440F202F2F70822F90E09C01B8
:100F3000042E02C0220F331F0A94E2F704FF0AC0F6
:100F40008FE090E002C0880F991F4A95E2F78095E4
:100F5000909502C080E090E0C695C695C370822B44
:100F6000932BC23049F058F4C13019F00E94640943
:100F70007DC00E945B097AC00E946D0977C00E9403
:100F8000110974C0CF70DD2339F08C2F0E9429091C
:100F9000802F0E9451066AC0802F0E9458068C2F15
:100FA0000E94390963C0023F19F128F4003F41F063
:100FB000013FB9F03FC0033F11F1043F71F03AC067
:100FC000DD2339F011114EC08C2F8F710E944B0917
:100FD00049C0123008F046C0F7CF8091C60282FDAA
:100FE00018C0DD2339F08C2F8F710E9429093AC077
:100FF000DD23C9F38C2F8F710E94390933C0DD23A3
:1010000029F08C2F8F710E941D092CC00E94180995
:1010100029C0DD2331F063E08C2F8F710E94F10D28
:1010200021C081E00E940F0E1230E0F082E00E94A9
:101030000F0E18C0DD2331F01123A9F2802F0E947A
:10104000590510C01123B1F2093349F49FEFE7EEBF
:10105000F3E09150E040F040E1F700C00000802F45
:101060000E94DE0588EF8C0D843028F40E94F21D6A
:101070000E94F80413C0DD2089F00E944C0D80FD11
:101080000DC0F70115820E94460D0E942909C70173
:101090000E946B080E94460D0E943909CDB7DEB749
:1010A000E8E00C9468270F931F93CF93DF93EC0134
:1010B000688179818D810E942A0A8C010E947609BB
:1010C0000E94E108B801CE010E945F06DF91CF9136
:1010D0001F910F910895CF93DF93FC012481222368
:1010E000D1F0EC010E94400481110FC00E94500D0C
:1010F000882389F08D81882371F08091C60282FF58
:101100000AC082E00E940F0E06C0CE010E94530862
:10111000CE010E94E503DF91CF91089580E090E039
:101120000E940D1E80E090E00E94321E0E94770D0A
:101130000E94D90D08950E94B11E0E948E08089544
:101140000E94670D0E949B08089592959F709630AB
:1011500079F010F4925001C09A50923068F4803FB8
:1011600069F018F4883E40F409C0843F29F406C0B1
:10117000883E20F0813F11F080E0089581E00895DD
:10118000FC012481222339F0808191810E941F0A71
:101190000E94A508089580E00895A6E0B0E0E3ED80
:1011A000F8E00C9452272696E2E00C946E27A7E014
:1011B000B0E0EDEDF8E00C9452272796E2E00C94B5
:1011C0006E27089508950E94E20808950E94E3089A
:1011D00008950E94E6089093030280930202089506
:1011E0000E94E90808952091020230910302822BA7
:1011F000932B0E94E9080895209102023091030286
:10120000822393230E94E9080895209102023091DD
:101210000302822793270E94E90808950E942D0364
:1012200008950E940E099093010280930002089590
:1012300080E090E00E941109089521E030E0A901CA
:1012400002C0440F551F8A95E2F7CA010E94110996
:10125000089521E030E002C0220F331F8A95E2F7A3
:101260008091000290910102822B932B0E94110920
:10127000089521E030E002C0220F331F8A95E2F783
:101280002095309580910002909101028223932352
:101290000E941109089521E030E002C0220F331F9F
:1012A0008A95E2F7809100029091010282279327AC
:1012B0000E94110908952091000230910102822BB1
:1012C000932B0E9411090895209100023091010290
:1012D000822393230E9411090895209100023091E6
:1012E0000102822793270E94110908950895962FDD
:1012F0009770A1E001C0AA0F9A95EAF793E076955E
:1013000067959A95E1F7660F771F660F771FFA01C9
:10131000E60FF71F40E050E0682F70E090819B01DE
:10132000042E02C0369527950A94E2F72170219584
:1013300029272A23292721934F5F5F4F44305105E6
:1013400069F70895FB01782F777023E096958795CC
:101350002A95E1F7880F991F880F991FE80FF91F49
:1013600040E050E080E0219130E0072E02C0369549
:1013700027950A94E2F721703327042E01C0220F2B
:101380000A94EAF7822B4F5F5F4F4430510559F7BB
:101390000895282F973070F4883060F4862F622FDC
:1013A00070E028E0929F600D711D112444EE51E021
:1013B0000E9477090895973070F4883060F4292FDF
:1013C00090E064EE71E038E0239F800D911D1124C0
:1013D0000E94A209089580E00895A0E0B0E0E3EF44
:1013E000F9E00C944B277C0100910002109101025E
:1013F0008091020290910302082B192BCFE0D0E0DC
:10140000CC24C394D12CC6010C2E02C0880F991F86
:101410000A94E2F780239123892B21F4219798F7EE
:10142000B12C07C0BC2EB7018C2F0E942811019748
:10143000A9F38B2DCDB7DEB7E9E00C946727CF93E6
:10144000DF93EC010E94ED09BE010E942811DF919B
:10145000CF9108951F93CF93DF93EB019091E30118
:10146000992321F0CB010E941F0A13C0882349F061
:10147000CB010E94ED09182F682FCE010E94C909E7
:1014800004C0CB010E94DB09182FBE01812F0E94EE
:101490002811DF91CF911F910895E1E0F0E0DF0185
:1014A00002C0AA0FBB1F6A95E2F7BD01DF0102C0AF
:1014B000AA0FBB1F4A95E2F7AD01462B572B02C07E
:1014C000EE0FFF1F2A95E2F79A01282339234217CE
:1014D000530719F48E2B9F2B0895E095F0958E23DA
:1014E0009F2308951F93CF93DF93C091040217E0C9
:1014F00080910502C817A1F0D0E01C9FF0011D9F4C
:10150000F00D1124EA5FFD4F20813181428153812A
:101510006481758186810E94D7082196C770E8CFC3
:10152000DF91CF911F91089520913E0230913F02AB
:1015300040914002509141026091420270914302F9
:10154000809144020E94D7080895CF93DF93809141
:10155000440282958F7009F04EC080914302882327
:1015600009F449C0809104024091050250913F0264
:1015700060913E02C0914002D091410277E0841711
:10158000D1F190E0789FF001799FF00D1124DF01F7
:10159000AA5FBD4F14962C911497222349F11196FE
:1015A0002C911197251324C02C91261321C0159638
:1015B0002C91159721111CC012962D913C911397D7
:1015C0002C1B3D0B283C310598F4809144028F7010
:1015D000806180934402E45FFD4F80818F70806161
:1015E00080838EE392E00E946B080E94720A03C01F
:1015F00001968770C4CFDF91CF91089520910402A6
:101600009091050257E02917A9F030E0529FF001B0
:10161000539FF00D1124EA5FFD4F7181761306C0D0
:101620007081781303C07581741306C02F5F3F4F1C
:101630002770E9CF80E0089581E00895A4E1B0E04B
:10164000E4E2FBE00C9448278C0186E0F801DE011F
:101650001F9601900D928A95E1F7F8018481E5804B
:101660009EE3A92E92E0B92E90914202911118C0EA
:10167000882309F47FC1EE20D9F1C8010E94C00877
:10168000F82E8823A9F187E0F801D50101900D9289
:101690008A95E1F7C5010E9450050E94A50A65C11F
:1016A000F801C080D18082809380F0904302209125
:1016B000400230914102A401421B530BFF2009F468
:1016C000F8C0483C510508F0A1C0882309F454C172
:1016D00080914402282F207F90913F02222361F0C5
:1016E0009D1509F462C0C8010E94C008811165C03F
:1016F000C8010E946B083EC19D1115C090913E0229
:101700009C1111C0E1100FC08F7080618093440262
:101710000E94940A8EE392E00E946B08809144023A
:10172000F801868325C1E1103AC040E06D2D8C2D73
:101730000E94FE0A40E06D2D8C2D0E94FE0AE82ECC
:10174000811116C1CF86D88A8F8598890E941F0A79
:10175000292F22952F70243020F49F70223028F0FA
:1017600009C02A50223080F014C0992349F0811119
:1017700007C013C0992321F0F8019681907F69F08A
:10178000805E883030F409C0803F38F0815F83305C
:1017900020F0C8010E946B08EF2CFE2CEDC0809158
:1017A0004402816080934402E3C090913E029C1108
:1017B0009ACFE11098CFF801A7C0EE2009F498CF96
:1017C00020914402822F82958F7090E002978CF0D6
:1017D00080913E0290913F02998788879B868A86F6
:1017E000809142028C871D862E87CE0108960E942A
:1017F0006B0887E0F801AEE3B2E001900D928A95A4
:10180000E1F70E94A50A0E94940AB4C09091440294
:10181000292F207FA1F4682D9A8A898AA6017A89C6
:101820009E2D0E94CD088EE392E00E946B0887E017
:10183000F50111928A95E9F70E94940A99C08823CC
:1018400009F49AC080913F028D1111C080913E022F
:101850008C110DC0E1100BC0F8019683C8010E94E5
:101860006B0887E0F50111928A95E9F785C0C801F8
:101870000E94C008882309F43BCFEE2009F438CF3A
:1018800020914402822F82958F7090E002970CF491
:10189000B0CF80913E0290913F029A8389839C82CF
:1018A0008B82809142028D831E822F83CE0101960E
:1018B0009ECF483C510508F04BC0882309F45AC01C
:1018C000FE2CEE2009F414CF80913F028D1132C01E
:1018D00080913E028C112EC09091440290FD21C057
:1018E000892F82958F70282F30E021153105C9F09E
:1018F000F80196832F30310541F08F5F982F929534
:10190000907F86818F70892B8683C8010E946B0827
:1019100087E0F801AEE3B2E001900D928A95E1F71D
:1019200024C087E0F801AEE3B2E001900D928A9501
:10193000E1F722C0C8010E94C00881115ACF8091EE
:101940004402816080934402C8010E946B0814C065
:10195000682D9A8A898AA6017A899E2D0E94CD08CF
:1019600087E0F50111928A95E9F70E94940A04C074
:10197000F12C02C0FF24F3948F2D6496ECE00C94BC
:101980006427AEE0B0E0E7ECFCE00C945127288738
:1019900039874A875B876C877D878E87CE0108965B
:1019A0000E941E0B882361F06C856623A9F12885AF
:1019B00039854A855B857D858E850E94D7082CC038
:1019C00087E0FE013896DE01119601900D928A950E
:1019D000E1F76C85662301F12091050230E0C90131
:1019E0000196877099274091040250E0841795076B
:1019F000E1F16D8397E0929FD001939FB00D112488
:101A0000AA5FBD4FFE01319601900D929A95E1F7C4
:101A1000809305020E94720A17E08091040290915F
:101A20000502891779F1189FC00111248A5F9D4F23
:101A30000E941E0B882331F1E09104021E9FF001E9
:101A40001124EA5FFD4F20813181428153816481FD
:101A5000758186810E94D7088091040290E00196EA
:101A60008770992780930402D8CF0E94A008109213
:101A7000050210920402EEE3F2E087E0DF011D921E
:101A80008A95E9F72E96E3E00C946D2780914D023C
:101A9000869586958695089580914D028770089564
:101AA00090914D02977081E009F480E00895809153
:101AB0005902089590915902892B809359020895F3
:101AC000809590915902892380935902089510922C
:101AD0005902089590915802892B809358020895D5
:101AE000809590915802892380935802089510920E
:101AF0005802089508950E947A0D08950E947B0D62
:101B0000089590914F02292F2823821729F0982BAE
:101B100090934F020E947E0D089590914F02292FBD
:101B2000282331F08095892380934F020E947E0DF7
:101B3000089580914F02882329F010924F0280E08F
:101B40000E947E0D08950F931F93CF93DF93009112
:101B5000040110910501C091590280915802C82BCF
:101B600080914F02882331F0C82B0E94571E8111AB
:101B70000E94990DF801C083C0910401D091050124
:101B800048E050E065E472E0CE010E942228892BF3
:101B900059F088E0FE01A5E4B2E001900D928A952B
:101BA000E1F7CE010E94021EDF91CF911F910F91AC
:101BB00008950E94A30D08950E947A0D08950E9431
:101BC000DC0D089590914E02292F282331F0809545
:101BD000892380934E020E94DF0D08950E947A0DA2
:101BE00008959091C60292FF11C098E0899F9001DC
:101BF0001124262B20934D020E94290980914D0229
:101C00008695869586950E94EE0D08950E94290975
:101C1000089510924D0280E00E94EE0D089590917B
:101C20004D028095892380934D02282F277069F4F7
:101C3000981759F09091C60292FF07C08695869535
:101C400086950E9439090E94090E08959091C60256
:101C500092FB222720F9281769F080FB92F99093D4
:101C6000C6028091C5029091C6020E94750E82E064
:101C70000E940F0E08958091C60282FB882780F98A
:101C800091E089270E94260E089581E00E94260E89
:101C9000089580E00E94260E08956FEF7FEF80E0A8
:101CA00090E00E947A28089580E090E00E94462803
:101CB00021E0853E9E4F09F020E0822F089582E0CA
:101CC00090E00E943828089583E090E00E94382830
:101CD00090E00895682F83E090E00E945C280895CA
:101CE00084E090E00E9446280895BC0184E090E0E2
:101CF0000E947A280895AB01BC018FE090E00E9419
:101D00006E280895AB01BC0183E190E00E946E282B
:101D1000089560E070E0CB010E94820E089560E0BB
:101D200070E0CB010E947B0E0E94890E0895A8E00E
:101D3000B0E0EDE9FEE00C94522765EE7EEF80E026
:101D400090E00E947A2860E082E090E00E945C28A7
:101D500081E090E090930302809302020E946A0E59
:101D600060E074E184E090E00E947A2860E086E020
:101D700090E00E945C2860E087E090E00E945C2890
:101D800040E050E0BA0188E090E00E946E2860E0F8
:101D900083E290E00E945C2860E08CE090E00E948A
:101DA0005C2860E08DE090E00E945C2819821A8235
:101DB0001B821C821D821E821F82188648E050E012
:101DC00067E170E0CE0101960E944C2840E050E0AF
:101DD000BA018FE190E00E946E280E948F0E289633
:101DE000E2E00C946E270E94970E0895682F8EE013
:101DF00090E00E945C280895A6E0B0E0E2E0FFE0F9
:101E00000C9450270E94BF1F8C0180915A02909120
:101E10005B020817190781F019821A820E94BF1FFE
:101E2000682F49815A81792F80E090E00E941D053A
:101E300010935B0200935A022696E4E00C946C2700
:101E40000E94CB1F609367027093680280936902BF
:101E500090936A02609363027093640280936502B8
:101E600090936602089581E0089581E008950E94AC
:101E7000350F089508950E943A0F08950E943A0F71
:101E800008950E943A0F08950E94270308950E9422
:101E9000410F0E94440F08950E943A0F08950E9436
:101EA0003A0F08950E944F0F08950E944C0F0E9410
:101EB000520F08950E943A0F089588E192E10E941E
:101EC00083130E945A0F0E94550F08950E943E0FDF
:101ED0000E943B0F0E943A0F08950E94540E8111F8
:101EE00002C00E94F30E0E945F0E80936B020E945C
:101EF000700E9093C6028093C5020E942A1C0E9415
:101F0000640E0E94F00880910002909101020E94EC
:101F10000E0908950E94B61F0E94DF120E946D0FE5
:101F20000E94F7040E94C51A0E94470F0895A6E078
:101F3000B0E0EDE9FFE00C9449270E94330F8111D6
:101F400003C00E94FC0E53C00E94F5128CE5E82EDF
:101F500082E0F82E670100E0F60111916F01802FF9
:101F60000E942D1281270F5F073019F08823A1F3FB
:101F700002C0882331F380916B0281FD0E943312ED
:101F80000E94370FA82E10E099249394812F0E946D
:101F90002D12B82EF701C080C82609F100E0DD241B
:101FA000D3948C2D8D21A9F0AA2099F009831A834E
:101FB0000E94BF1F9C838B839D8291E08B2D8D217E
:101FC00009F490E049815A816B817C818D810E9466
:101FD0001D050F5FDD0C083021F7F701B0821F5F90
:101FE000FFEFEF1AFF0A173089F60E94200F0E94B8
:101FF000CB1B0E9404052696EBE00C9465271F93EB
:10200000CF93DF930E942D11EC01C11580E5D80715
:10201000E8F5C11590E4D90708F0A8C0C03ED10585
:1020200030F5CD3CD10508F094C0C83AD10578F41C
:10203000C53AD10508F083C0C130D10509F47CC090
:1020400008F4F2C0C430D10508F0F1C0EDC0C33CC3
:10205000D10508F0E9C0C85AD0E0CC0FDD1FC05A46
:10206000DE4F0990D881C02DCE019464E1C0C11526
:1020700080E2D80708F0CBC0C11591E0D90708F07D
:102080006BC0C83ED10508F4D2C0CEC0C03682E5D0
:10209000D80728F5C03492E5D90708F079C0C032D6
:1020A00082E5D80708F06CC0C11592E5D90708F49D
:1020B00081C04C2F4695469580E2489FA00111248F
:1020C000C37021E030E0C90102C0880F991FCA9592
:1020D000E2F7EA01C82BD92BCE019D68A9C0C03A0E
:1020E00082E5D807B8F48C2F8F71C03892E5D907F4
:1020F00008F07BC08695869590E2899F9001112417
:10210000C37081E090E002C0880F991FCA95E2F782
:102110009A6868C0C03C82E5D80708F46DC0C03E2C
:1021200092E5D90708F080C0CF71DD27DC2FCC27DE
:10213000CE01806F906A7CC081E090E079C0C55A82
:10214000D0E0CA56DE4F8881C82FD0E0CE0190641F
:102150006FC0CE0190656CC08D2F0E94C911182FE1
:10216000CE0199270E942D111F715CC0CE019927C5
:102170000E942D11CC27DF70D06A8C2B9D2B58C06C
:10218000CF71D0E0DC2FCC27CE01816F906A50C098
:102190008C2F8F718695869590E2899F90011124EE
:1021A000C37081E090E002C0880F991FCA95E2F7E2
:1021B0009C6818C08C2F8F710E94C91195E0D6952C
:1021C000C7959A95E1F7CF70D0E0DC2FCC27282F68
:1021D00030E084FF05C084E0220F331F8A95E1F7C9
:1021E000D069CE01822B932B23C090E0D82FCC272F
:1021F000CE01846F906A1CC08C2F8F710E94C91110
:102200008F7190E0D82FCC27CE01906211C08D2F16
:102210008F710E94C911182FCE0199270E942D118C
:102220001F719062912B04C080E090E001C0CE014C
:10223000DF91CF911F910895773038F4683028F4FA
:10224000462F672F0E947203089580E090E0089562
:102250000E941C110E94FF0F08958238910569F1B8
:10226000B0F48133910509F475C048F489329105C1
:1022700009F467C08A32910509F471C00895853365
:10228000910509F459C089339105B9F00895833E49
:10229000910589F138F4803E9105D1F0823E910597
:1022A00029F10895863E9105C9F1873E9105D9F13E
:1022B000843E910509F06CC027C02091C50220FD25
:1022C00057C021FD55C02091C60223FD5BC0089573
:1022D0008091C50280FD48C08091C60280FF48C041
:1022E0008091C50284FD46C083EE51C08091C50235
:1022F00082FF3CC0F5CF8091C50282FD37C080913E
:10230000C60280FD35C0ECCF8091C60281FF36C089
:102310008091C50284FD2EC087EE39C08091C50230
:1023200083FF2AC0F5CF8091C50283FD25C080912F
:10233000C60281FD23C0ECCF8091C50285FD22C07D
:102340001FC08091C50285FD1BC08091C60283FF1E
:1023500019C00AC08091C50286FD16C017C08091C1
:10236000C50286FD13C010C089E311C082EE0FC004
:1023700080EE0DC080E00BC086EE09C084EE07C081
:1023800085E305C089E203C08AE201C081E390E0F1
:1023900008959091C50292FF10C041E0282F24714A
:1023A000243009F040E031E0282F2871283009F06E
:1023B00030E0431711F02CE0822793FF10C041E07A
:1023C000282F2471243109F040E031E0282F2871B2
:1023D000283109F030E0431711F02CE082273091CA
:1023E000C60230FF10C051E0282F2171213009F0C2
:1023F00050E041E0282F2871283009F040E05417C0
:1024000011F029E0822731FF10C041E0282F21710F
:10241000213109F040E031E0282F2871283109F0FE
:1024200030E0431711F029E0822794FD877E08955C
:1024300080E00895CF939C01205E32452032310523
:1024400040F4FB01C581C11105C08F710E940604D3
:1024500001C0C1E08C2FCF910895E82FF0E0E25346
:10246000FD4F80810895089580EA8A95F1F70895D7
:1024700000C008950E943412089508950E943D12EC
:1024800008950E943E1208950E943D1208950E94F0
:1024900044120895F894E82FE295EF70F0E031A12E
:1024A000282F2F7081E090E001C0880F2A95EAF76D
:1024B000982F9095932391A392A1892B82A378942E
:1024C00008950F931F93CF93DF93C1EAD1E08991D1
:1024D0008F3F11F00E944A1281E0C83AD807B9F73D
:1024E000C9E9D1E001EA11E089918F3F11F00E9422
:1024F0004A120C171D07C1F7DF91CF911F910F9161
:102500000895A0E0B0E0E7E8F2E10C944C278C01DC
:10251000C62FD0E0CE018F559E4F7C01FC019081EB
:102520009F3F09F447C0D62EF894E92FE295EF704B
:10253000F0E081A19F7021E030E001C0220F9A9568
:10254000EAF7822B81A382A12095282322A37894E5
:102550000E943812E9E9F1E041EA51E031E0C12C92
:1025600021912F3F89F0A22FA295AF70B0E09096F5
:102570008C9190E02F7002C0959587952A95E2F78F
:1025800080FD02C0832F01C080E0C82A330F4E17A0
:102590005F0731F7F70180818F3F11F00E944A12E7
:1025A00061E0C11001C060E08D2D0E943A12C00FA1
:1025B000D11FC882CDB7DEB7E8E00C9468270E942F
:1025C000611287E0EEECF2E0DF01982F1D929A9500
:1025D000E9F7E7ECF2E0DF011D928A95E9F787E081
:1025E0000E9430130E9447120895A7E0B0E0EBEF7D
:1025F000F2E10C944F278E010F5F1F4F87E0F80127
:1026000011928A95E9F7F12C6F2DC8010E94811271
:10261000F394F7E0FF12F8CF47E050E0B80187EC01
:1026200092E00E94222821E0009709F420E0892B03
:1026300041F087E0F801A7ECB2E001900D928A9595
:10264000E1F747E06EEC72E087EC92E00E94311314
:10265000182F0E944112812F2796E5E00C946B27DA
:102660000895EF92FF920F931F93CF93DF937C0116
:102670008B01C42F222351F081E080936E020E94CF
:10268000BF1F90936D0280936C0204C080916E0214
:10269000811102C080E01AC080916C0290916D029D
:1026A0000E944C1F0597B0F3D0E0AE01B701C801FE
:1026B0000E942228892B39F0AE01B701C8010E947F
:1026C0002F2881E001C080E010926E02CDB7DEB706
:1026D000E6E00C946A270E94970F08950E94561F07
:1026E0000E945B210E945D0F0E9475210E948A0F4B
:1026F0000E9482210E9487210E946B130E94A121C7
:102700000E94660FF7CF9093DD018093DC0108955E
:102710000F931F93CF93FB01C581CC2309F444C0D1
:102720008C010E94570D8272F801E052F847EB309D
:10273000F105D8F5EE59FF4F0C940B270E94B71AFC
:1027400027C0882329F00E94A51A22C08823D9F324
:102750000E94951A1DC0882329F00E94031718C0F3
:102760008823D9F30E94F41613C0882329F00E940D
:1027700025170EC08823D9F30E94141709C0882397
:1027800029F00E94471704C08823D9F30E94361706
:10279000C0E00BC0882329F00E946015F9CF882380
:1027A000D9F30E944015F4CFC1E08C2FCF911F9137
:1027B0000F910895EF92FF920F931F93CF93DF93A2
:1027C0008B01682F11110AC0442329F0E82FF0E093
:1027D000EC5DFB4F6491762F862F75C0212F30E082
:1027E000E82FF0E0442321F0EC5DFB4FE491F0E0B2
:1027F00046E0049FC0011124CFEFD0E0BE010E944B
:10280000C1264BEA4603C001479F900D1124800F5B
:10281000911D800F911D982F990F890FAE01421BBA
:10282000530B4E9FD0014F9FB00D5E9FB00D1124F2
:102830009B2F189FA0011124452F55278E01041BA3
:10284000150B0E9FA0010F9F500D1E9F500D1124C0
:102850007E01E81AF108E29E8001E39E100DF29ECF
:10286000100D1124212F3327C21BD30BCE9F9001B3
:10287000CF9F300DDE9F300D112462307105A9F01D
:1028800050F46115710571F061307105C1F47E2F4E
:102890008B2F952F17C06430710569F048F06630B2
:1028A000710569F48B2F732F0CC07E2F832F0AC004
:1028B0008E2F752F07C08E2F7B2F932F03C0852F50
:1028C0007B2F9E2F692FCDB7DEB7E6E00C946A27E9
:1028D00041E00E94DA13089508950E946814089553
:1028E000E82FF0E0E65EFB4F849190910901891B8F
:1028F0000895FF920F931F93CF93DF93182F062F06
:10290000F42E822FC091D501D091D6010E9470146F
:102910002F2D402F612F90E0FE010995CDB7DEB736
:10292000E5E00C946B27CF93DF93762FE901682FB6
:10293000842F0E946D14962F672F9E01482F892F98
:102940000E947914DF91CF9108958091D502282FAC
:102950002695269530E02115310519F483708460A1
:1029600005C02B32310524F08370886A8093D5022C
:102970000895A0E0B0E0EFEBF4E10C944C2788E080
:1029800090E00E9440286B017C0183E290E00E946D
:102990003828282F30E040E050E060E070E080E030
:1029A00090E000E20E947927B22FA32FF42FE52FA9
:1029B000D62FC72F97018601BC29A12BF22B5E2FA2
:1029C000532B2B2F3A2F4F2F6D2F7C2FCDB7DEB7E8
:1029D000E8E00C946827A0E0B0E0E1EFF4E10C94AB
:1029E000482749015A016B017C010E94A51484010A
:1029F000A4016A2D7B2D88E090E00E946E2894014E
:102A00004A2D5B2DB601C70100E20E949427622F78
:102A100083E290E00E945C28CDB7DEB7ECE00C9436
:102A20006427E5EDF2E025E0208311828FEF8283B9
:102A300083831482758130E04FEF5FEF60E0868121
:102A400097810E94EB1408959091D902933018F465
:102A50009F5F9093D902882391F02091D502309105
:102A6000D6024091D7025091D8026091D90270915C
:102A7000DA028091DB029091DC020E94EB1408954F
:102A800081E00E94241508959091D902992319F0AC
:102A900091509093D902882391F02091D5023091E2
:102AA000D6024091D7025091D8026091D90270911C
:102AB000DA028091DB029091DC020E94EB1408950F
:102AC00081E00E944415089521E030E001C0220F0A
:102AD0008A95EAF78091B102282381E009F480E029
:102AE00008958F929F92AF92BF92DF92EF92FF92E2
:102AF0000F931F93CF93DF9300D000D01F92CDB7D9
:102B0000DEB78091D50280FF08C0A090A402B090EB
:102B1000A502A114B104B1F426C010910B01E090FC
:102B2000D501F090D60180910C01181770F7812F14
:102B30000E94701420E040E060E090E0F701099509
:102B40001F5FF1CF8091D50280FF0DC0D12C8D2D5C
:102B50000E946415882309F441C0F501E590F490C2
:102B6000E114F104C9F4E091D901F091DA01099579
:102B70000F900F900F900F900F90DF91CF911F91BA
:102B80000F91FF90EF90DF90BF90AF909F908F904C
:102B9000089585E0E80EF11C45E050E0B701CE0154
:102BA00001960E940C2809810F3FC1F010E08A8134
:102BB0004801880E911CFBE08F1691041CF08AE0FE
:102BC000882E912C0815190524F798014D816C81E8
:102BD0008B810E9493140F5F1F4FF4CFE2E0AE0E83
:102BE000B11CD394F8E0DF12B2CFBDCFEF92FF92C9
:102BF0000F931F93CF93DF939091D50290FF1AC04C
:102C0000042F162FD82FC0910B01E090D501F09022
:102C1000D60180910C01C81758F48C2F0E947014B3
:102C2000202F412F6D2F90E0F7010995CF5FF1CF55
:102C30000E947115CDB7DEB7E6E00C946A2790913B
:102C4000D50290FF0BC0762F682F842F0E94681446
:102C5000962F672F482F892F0E94F6150895CF933E
:102C6000DF93EC01EC81F0E0EB5EFC4F4491E5ED8D
:102C7000F2E0628181810E941F168C818F5F8C83BC
:102C8000DF91CF910895CF93DF93EC01E5EDF2E072
:102C9000438162818C810E941F168C818F5F8C839F
:102CA000DF91CF910895CF93DF93EC014091D8024B
:102CB0009C8190FF02C0842F01C080E091FF02C080
:102CC000642F01C060E092FF40E00E94F6158C8105
:102CD00090E00196877099278C83DF91CF910895BA
:102CE000A0E0B0E0E6E7F6E10C944D27D82FF62EF1
:102CF000142FE22E9091D50290FF66C0E92FE69541
:102D0000E695AE2FB0E0A855BE4F8C918093AF02F0
:102D10009C7F943061F46D2F7F2D842F0E94681466
:102D2000962F672F482F892F0E94F61536C08230C4
:102D300019F41091D80231C0863019F4D091D6021E
:102D40002CC08930D9F3893141F5E9518E2F81703A
:102D5000D82EE695F0E0EB5EFB4FC49100E0609169
:102D60000D010617C0F40C9FC001112470E00E94F1
:102D7000C1268D2FD11002C0860F01C0861B9091F5
:102D80000B01202F30E0290F311D412F6F2D0E94A4
:102D900093140F5FE4CF0E947115D093D602F09286
:102DA000D7021093D802EE2079F02091D5026091DD
:102DB000D9027091DA023D2F4F2D512F8091DB0205
:102DC0009091DC020E94EB14CDB7DEB7E7E00C94E3
:102DD0006927E5EDF2E09181282F4381628180E14E
:102DE000890F0E947016089581E00E94E9160895E7
:102DF000E5EDF2E09181282F4381628180EF890F18
:102E00000E947016089581E00E94F8160895E5ED7D
:102E1000F2E0628120E1620F08F46FEF282F438116
:102E200081810E947016089581E00E94071708951D
:102E3000E5EDF2E0628120E1621B08F460E0282FFA
:102E4000438181810E947016089581E00E941817C5
:102E50000895E5EDF2E0438120E1420F08F44FEFE1
:102E6000282F628181810E947016089581E00E945E
:102E700029170895E5EDF2E0438120E1421B08F4B3
:102E800040E0282F628181810E947016089581E0C0
:102E90000E943A17089520E00E9470160895EF925C
:102EA000FF921F93CF93DF93EC0110E0EE24EA949E
:102EB000F12C60910D011617B8F480910B01212FB0
:102EC00030E0280F311D70E0C7010E94D526962FF3
:102ED0008C814091D8026091D702199F800D1124F6
:102EE0000E9493141F5FE5CF0E9471159A818C8117
:102EF00090FF02C08F5F01C081508C83DF91CF9122
:102F00001F91FF90EF900895A0E0B0E0EAE8F7E1AC
:102F10000C944A27FC01828180FF02C0DFEF01C0D0
:102F2000D1E0C0E0C090D501D090D6019AE0A92EA2
:102F300080910D01C81708F041C080910B018C0FE2
:102F40000E94701420E040E060E090E0F6010995F6
:102F500004E010E0B12CEC2EF12C809170028B0D6E
:102F60008B302CF06A2D0E94B326892F05C087FF75
:102F700003C090910D01890F082E000C990BE816E3
:102F8000F906B1F480910B019701280F311D809152
:102F9000D802809FA001819F500D1124559547951F
:102FA000559547956091D7028091D6020E9493145F
:102FB000BD0E0150110989F6CF5FBACF0E9471157D
:102FC00080917002D13031F4811102C080910D01E5
:102FD000815007C090E0019660910D0170E00E9461
:102FE000D52680937002CDB7DEB7EAE00C94662751
:102FF0000F931F93CF93C0910B010091D5011091B6
:10300000D60180910C01C81758F48C2F0E947014BF
:1030100020E040E060E090E0F8010995CF5FF1CF5B
:10302000C0E00091D5011091D60160910D01C61745
:1030300070F5EC2FF0E070E0CF010E94D5262091D2
:103040000B01820F20916F02022E000C330BE2174E
:10305000F3079CF020910801022E000C330B2E1771
:103060003F075CF0282F30E04091D8026091D702F2
:103070008091D6020E94931408C00E94701420E030
:1030800040E060E090E0F8010995CF5FCECF0E946C
:1030900071152091070180916F02820F80936F025A
:1030A00090910801920F9093080119165CF4082E74
:1030B000000C990B40910D0150E0415051098417CB
:1030C00095071CF0219520930701CF911F910F9137
:1030D0000895A0E0B0E0EFE6F8E10C944827EC0199
:1030E0004C81042F10E09801D8010E9419279B0100
:1030F000AC010E942F276B017C01E0E2F0E0E01BB5
:10310000F10BA5E5B0E09B01AC010E942F274B011C
:103110005C019F01DF010E9411279B01AC010E940D
:103120003A279B01AC012C0D3D1D4E1D5F1DC501B5
:10313000B4010E94E926822FF22E99E2921728F01C
:1031400093E0299F900111240DC025E530E0281B54
:103150003109C901880F991F280F391F37FF02C095
:103160002F5F3F4F35952795122F109500E085E58D
:10317000E82EEF1880910D01081790F401FD02C0B0
:103180008E2D01C08F2D90910B01202F30E0290F43
:10319000311D412F6091D7020E9493140F5FEACF37
:1031A0000E9471158C81811102C091E003C08032B0
:1031B00019F49FEF9093060190910601890F8C837B
:1031C000CDB7DEB7ECE00C9464270F931F93CF9339
:1031D000DF938C01C0E0D0E080910D01282F30E01A
:1031E000C217D30734F5869590E0F8013481209119
:1031F0000B01C817D9073CF4332371F0CE01820FBD
:10320000911D9C0106C0311107C0FE01E20FF11DA6
:103210009F014091D80205C0CE01820F911D9C01F3
:1032200040E06091D7028091D6020E9493142196CB
:10323000D3CF0E947115F801848190E001968170CE
:1032400099278483DF91CF911F910F9108952F9239
:103250003F925F926F927F928F929F92AF92BF92B6
:10326000CF92DF92EF92FF920F931F93CF93DF9352
:10327000FC016280548081E08483E5E1F3E0749096
:10328000E4E9F3E0E491C091D802C695C158D0E0DA
:10329000CC0FDD1F2D2E3324812C25E0922EAA2465
:1032A000AA94B12CE719EE2EF12C80910D0188160D
:1032B00008F091C0C82CD12C22E0261568F09C9C07
:1032C000F0019D9CF00D1124EF58FD4F8091D60226
:1032D00080838091D702818351100AC09C9CF001A9
:1032E0009D9CF00D1124EF58FD4F1382128260C097
:1032F0009C9C80019D9C100D1124E801CF58DD4F4E
:103300008B818823F9F081508B832FEF829FC0013E
:1033100011246C8170E00E94C126FB01FF27EB5E47
:10332000FC4F8491E82FE7192FEFE29FC001112491
:10333000B7010E94C1268091D802689FB001112474
:103340007A8336C00E94FC27B5010E94D5268215DB
:10335000930574F582E0861588F40E94FC27B50178
:103360000E94D52688830E94FC272091D7022695AB
:10337000622F70E00E94D526280F29839C9CF001C3
:103380009D9CF00D1124EF58FD4F12828091D802C0
:10339000843120F0893C18F088EC01C084E19C9CC9
:1033A000F0019D9CF00D1124EF58FD4F8483838321
:1033B00080910B019601280F311D9C9CF0019D9C72
:1033C000F00D1124EF58FD4F4281618180810E94F0
:1033D000931483946ACF0E947115DF91CF911F914E
:1033E0000F91FF90EF90DF90CF90BF90AF909F90A4
:1033F0008F907F906F905F903F902F900895E5EDB4
:10340000F2E020812E7F20833181428153816481CB
:103410007581868197810E94EB141092B0020E9400
:1034200071150895E5EDF2E080818E7F8083109222
:10343000B0020E94711508951092B0028091AD0201
:1034400081110AC081E08093AD028091D502817024
:103450008093AC020E94121A08956091D50266957D
:10346000669570E04BE050E08EE091E00E941528F8
:10347000892B19F481E08093B0020E94BF1F9093C2
:10348000A7028093A60208959091D50290FF3FC0B5
:103490009370811102C0946007C08B3210F0986A5B
:1034A00003C0880F880F982B9093D502662391F064
:1034B0002091D5023091D6024091D7025091D80286
:1034C0006091D9027091DA028091DB029091DC0266
:1034D0000E94EB146091D5026695669570E04BE012
:1034E00050E08EE091E00E941528892B19F010928F
:1034F000B00202C00E942D1A81E08093A90240917F
:10350000D8026091D7028091D6020E944B1708958D
:10351000682F9091D5029695969581E0890F8B3210
:1035200008F081E00E94441A089581E00E94881A00
:103530000895682F9091D502969596958FEF890FF3
:1035400009F48AE20E94441A089581E00E94991ABF
:10355000089561E00E94441A0895E5EDF2E080814B
:1035600081608083869586950E94A91A089580912E
:10357000D50280FF03C00E94FF1908950E94AD1A72
:10358000089560E00E94441A08958091AE0281116E
:103590003CC00E94B9142093D5023093D6024093C8
:1035A000D7025093D8026093D9027093DA028093C5
:1035B000DB029093DC022C7FA1F40E9411150E9483
:1035C000B9142093D5023093D6024093D70250937A
:1035D000D8026093D9027093DA028093DB02909351
:1035E000DC020E94A5141092B002E091D301F09188
:1035F000D40109958091D50280FF04C086958695F7
:103600000E94C11A81E08093AE020895E5EDF2E0D8
:10361000808181608083869586950E94C11A089575
:103620001092AD028091AC0281110E94061B0E9493
:103630002D1A08950F931F93CF93DF938091B002BB
:10364000882309F492C08091AF02E091D502E695FB
:10365000E695E81BE093A802823049F4F0E0EF5EC3
:10366000FC4FE491CE2FD0E00FE216E159C0863036
:1036700049F4F0E0E25FFC4FE491CE2FD0E003E4A8
:1036800016E14EC0893051F4E695F0E0E55FFC4F5D
:10369000E491CE2FD0E00FE417E142C08F3051F417
:1036A000E695F0E0E85FFC4FE491CE2FD0E004E82F
:1036B00017E136C0853149F4F0E0EB5FFC4FE4914F
:1036C000CE2FD0E008EF17E12BC08831D9F083323C
:1036D00039F4E3E0F3E0C591D49103E516E120C0AD
:1036E0008432A9F08532C1F48E2F63E00E94A726B0
:1036F000E92FF0E0E050FD4FE491CE2FD0E007E25B
:1037000019E10EC0C8E2D0E009E618E109C0C4EF33
:10371000D1E005EE18E104C0C0EDD7E00CE614E1FD
:103720008091A902882361F01092A9020E94BF1F14
:103730009093A7028093A6021092AB021092AA0265
:103740000E94BF1FE091A602F091A7028E1B9F0B63
:103750008F3F9F4750F4EC0FFD1FF093A702E093BB
:10376000A60286EA92E0F80109958091A3028823D7
:1037700061F01092A3028091B002811106C0809185
:10378000D502869586950E94C11ADF91CF911F912F
:103790000F91089508950E941A1B0895539A089551
:1037A000FC01EE0FFF1F8E0F9F1FFC01E352FD4F28
:1037B0006183408322830895EDEDF2E0818360838D
:1037C0004283339692E0EB3FF907C1F708958BB13E
:1037D000877F9BB198602FB7F894EDEDF2E032E06F
:1037E000EB3FF30789F0319148E09BB9000000C03E
:1037F00037FF8BB9330F000000C000C000C08BB989
:1038000000C04A9591F7EBCF2FBF8FE594E0019769
:10381000F1F700C0000008950E944D0E089580E069
:103820000E942D12817008950E94F5122FEF86E7F5
:1038300091E0215080409040E1F700C000000E94DC
:10384000F5120E940F1C882321F00E940C1C0E947C
:10385000FD1F08950E94141C0895CF93DF938631B5
:103860009C4709F5EB010E94570D9D81992371F04A
:103870008A7A91E009F490E09093B202811102C03B
:1038800089E201C085E30E94A11E09C08091B202B5
:10389000811102C089E201C085E30E94A91E0E9435
:1038A000D90D80E001C081E0DF91CF910895CF93E1
:1038B000DF93FC01DB0115968C91882309F4DDC0B0
:1038C0009F0130572332310508F0D8C0EF010E9424
:1038D000700E9093C6028093C502FE01E150F0473E
:1038E000E232F10520F4E359FF4F0C940B2780914D
:1038F000C5028160AAC08091C6028860B2C0809172
:10390000C5028260A2C08091C50220C08091C5021C
:1039100088609BC08091C6021EC08091C6028260F2
:10392000A0C08091C502806190C08091C502806274
:103930008CC08091C502806488C00E94A0088091DC
:10394000C502806882C08091C502886084607DC0A5
:103950008091C6028260816084C08091C5028E7FA2
:1039600074C08091C602877F7CC08091C5028D7F24
:103970006CC08091C50220C08091C502877F65C060
:103980008091C6021EC08091C6028D7F6AC0809160
:10399000C5028F7E5AC08091C5028F7D56C080912E
:1039A000C5028F7B52C00E94A0088091C5028F770C
:1039B0004CC08091C502877F8B7F47C08091C60233
:1039C0008D7F8E7F4EC08091C50282FB222720F919
:1039D00091E0922790FB82F990FB83F936C08091A9
:1039E000C602982F909591708E7F892B90FB81F95C
:1039F00038C08091C50286FB222720F991E09227EA
:103A000090FB86F922C00E94A0088091C50287FB26
:103A1000222720F991E0922790FB87F916C081E0D8
:103A200001C080E00E94F60E1EC08091C50284FB9A
:103A3000222720F991E0922790FB84F906C080911B
:103A4000C502982F909590FB80F98093C5020BC01A
:103A50008091C60283FB222720F991E0922790FBF8
:103A600083F98093C6028091C5029091C6020E949C
:103A7000750E0E94A00880E001C081E0DF91CF9127
:103A800008950F931F93CF93DF93C42FD22FFC0180
:103A900085818823B1F04093B5020E94BF1F9093A7
:103AA000B4028093B30280E28C0F883008F04DC0DE
:103AB000C77081E001C0880FCA95EAF70E945106DD
:103AC00044C08091B502481330C08091B3029091F8
:103AD000B4020E944C1F883C910538F510E21D0F7E
:103AE000CD17B9F080E28C0F883040F4C77081E0C8
:103AF00001C0880FCA95EAF70E945806183010F5E1
:103B000081E09D2F977001C0880F9A95EAF70E9477
:103B10005106802F0E9447061830B8F4D77081E014
:103B200001C0880FDA95EAF70AC080E28C0F88306E
:103B300060F4C77081E001C0880FCA95EAF70E945F
:103B4000580603C0802F0E944706DF91CF911F9136
:103B50000F9108950F93FC01E851FC47E730F10500
:103B600090F5CB01E157FF4F0C940B2706E221EEB5
:103B700041EE6AE17CE723C007E225EE45EE6BE10A
:103B80007CE71DC006E221EE40EE68E17CE717C04D
:103B900007E225EE44EE69E17CE711C006E221EE82
:103BA00042EE6CE17CE70BC007E225EE46EE6DE1EC
:103BB0007CE705C008E221E045EE6EE17CE70E946B
:103BC000411D80E008C0FB018581882319F0109217
:103BD000B50201C081E00F9108959093BB028093DC
:103BE000BA020895E091BA02F091BB02309729F031
:103BF0000190F081E02D0995089580E008950E94DC
:103C0000F21D0895E091BA02F091BB02309721F0C5
:103C10000280F381E02D09950895A3E0B0E0E3E18F
:103C2000FEE10C9452272091B8023091B902281776
:103C30003907A1F09093B9028093B802E091BA02DB
:103C4000F091BB02309751F023E029839B838A8354
:103C50000084F185E02DCE01019609952396E2E0DE
:103C60000C946E27A3E0B0E0E8E3FEE10C94522749
:103C70002091B6023091B70228173907A1F090932E
:103C8000B7028093B602E091BA02F091BB0230977E
:103C900051F024E029839B838A830084F185E02D01
:103CA000CE01019609952396E2E00C946E27E091EF
:103CB0000401F0910501329697E080E0915029F0DF
:103CC00021912223D9F38F5FF9CF0895882371F0D2
:103CD0002091040130910501F9013296285F3F4F90
:103CE0009191891729F0E217F307D1F780E0089541
:103CF00081E008959C01FC0132969FEF80E04191A4
:103D0000461789F09F3F19F4411101C0982F8F5F2A
:103D10008630A9F79F3F39F0F901E90FF11D97FDB2
:103D2000FA956283089508959C012A5F3F4FFC0134
:103D30004281461301C01282019682179307B9F798
:103D40000895682F80910401909105010E947A1EC8
:103D50000895682F80910401909105010E94941E9E
:103D60000895E0910401F0910501329686E0DF01AB
:103D70001D928A95E9F7089508950E94BC1E089542
:103D800083E080931C016091190170911A01809168
:103D90001B0190911C010E94BD1E0895811102C05B
:103DA00081E001C082E080931C0160911901709153
:103DB0001A0180911B0190911C010E94BD1E089563
:103DC0000E94CE1E089581E080931C01609119012C
:103DD00070911A0180911B0190911C010E94BD1EDF
:103DE00008950E94E31E089591E0811101C090E0C2
:103DF00090931B016091190170911A0180911B0130
:103E000090911C010E94BD1E089580911B01089590
:103E100080931A016091190170911A0180911B0120
:103E200090911C010E94BD1E089580911A01089571
:103E3000809319016091190170911A0180911B0101
:103E400090911C010E94BD1E089580911901089552
:103E500008950E94281F08950E94291F08950E9416
:103E6000281F08950E94281F08950E94281F089562
:103E7000CF930E94321F0E94F5120E942F1FC0E0B4
:103E80008C2F0E942D12811104C0CF5FC730C1F763
:103E900001C081E0CF910895CF93DF93EC010E94A0
:103EA000BF1F8C1B9D0BDF91CF91089585B7806854
:103EB00085BF85B7806885BF08951F920F920FB6A2
:103EC0000F9211248F939F93AF93BF938091BC0265
:103ED000811113C08091FB029091FC02A091FD0220
:103EE000B091FE024196A11DB11D8093FB029093FB
:103EF000FC02A093FD02B093FE02BF91AF919F918F
:103F00008F910F900FBE0F901F9018958091030313
:103F1000843031F10E94AD041092BC0220E488E1AB
:103F200090E00FB6F894A895809360000FBE2093A0
:103F3000600083B7817F846083BF83B7816083BF64
:103F40007894889583B78E7F83BF0FB6F894A89531
:103F500080916000886180936000109260000FBEC5
:103F600008950E94A0080E94B604089582E084BDCE
:103F700093E095BD9AEF97BD80936E0008952FB79B
:103F8000F8948091FB029091FC02A091FD02B09107
:103F9000FE022FBF08952FB7F8946091FB02709135
:103FA000FC028091FD029091FE022FBF089578944B
:103FB0001F920F920FB60F9211248F939F93AF937E
:103FC000BF938091FB029091FC02A091FD02B09101
:103FD000FE020196A11DB11D8093FB029093FC028D
:103FE000A093FD02B093FE02BF91AF919F918F917C
:103FF0000F900FBE0F901F90189587E797E790934B
:104000000108809300089AE088E10FB6F894A8951B
:10401000809360000FBE90936000FFCF9AE088E12C
:104020000FB6F894A895809360000FBE909360003F
:10403000FFCF089508959B01909103039430F1F40C
:104040008F708093E9008FEF9091E800815095FD8B
:1040500006C095ED9A95F1F700008111F5CF80919A
:10406000E80085FF0BC0BA01C90140E050E00E94A2
:1040700019228091E8008E778093E800089543E04C
:1040800050E0BC0182E00E941B200895CF93DF9393
:10409000EC010E94051F48E050E0BE0181E00E9453
:1040A0001B2088E0FE01ADEBB2E001900D928A95F5
:1040B000E1F7DF91CF91089580910203811109C04A
:1040C0000E94A4230E9401248091E20084608093D6
:1040D000E20008951092020308950E94F11E81E00B
:1040E0000E94F41E08956091FF0281E0611101C0F9
:1040F00080E00E94C01E08959091030381E09430F7
:1041000009F080E06091FF020E94CE1E089542E017
:1041100061EC81E00E941D2342E261EC82E00E949A
:104120001D239091030381E0943009F080E06091B9
:10413000FF020E94E01E089580910503833009F478
:1041400061C030F4813071F0823009F49BC0089571
:104150008A3009F487C08B3009F46CC0893009F0CB
:10416000A9C020C080910403813A09F0A3C08091C6
:10417000E800877F8093E80080910803909109030D
:10418000892B21F468E08DEB92E003C060E080E0D1
:1041900090E070E00E945E228091E8008B7780932F
:1041A000E800089580910403813209F083C0809172
:1041B000080390910903029708F07CC08091E80001
:1041C000877F8093E8008091E80082FD05C08091A0
:1041D00003038111F8CF6EC02091F3008091F200AB
:1041E00090E0922B029731F48091F100813011F030
:1041F000863021F48091F1000E94081F8091E80030
:104200008B7754C080910403813A09F053C08091A8
:10421000080390910903892B09F04CC08091E800B4
:10422000877F8093E8008091E80080FFFCCF0E94A8
:10423000051F37C0809104038132E1F580910803A6
:1042400090910903892BB1F58091E800877F8093D5
:10425000E8000E945223809106030E94F41E0E94EF
:10426000A008089580910403813221F58091E8002F
:10427000877F8093E8000E945223809107030E9469
:10428000181F089580910403813AA1F48091E800F9
:10429000877F8093E8008091E80080FFFCCF0E9438
:1042A000251F8093F1008091E8008E778093E800CD
:1042B0000E945223089584B7877F84BF0FB6F89475
:1042C000A8958091600088618093600010926000E2
:1042D0000FBE90E080E80FB6F89480936100909351
:1042E00061000FBE0E94E31E08950E94A4230E9455
:1042F0000124E2EEF0E080818460808378940E9463
:104300008C2608958DE191E00E94ED1D0895809125
:1043100003038530A9F480910303853079F40E946A
:10432000861F0E94381F8823B1F3809101038823E0
:1043300091F30E9403220E94A008EDCF0E94B11FBA
:10434000089508959A0140910A0350910B030E9429
:10435000AA210895492F552743305105C9F060F42B
:104360004130510581F04230510509F044C08BE3E2
:1043700090E04CE455E043C041325105E1F0423257
:10438000510549F138C082E190E047E855E037C077
:1043900099278130910549F028F0029761F5E4E210
:1043A000F5E005C0E8E4F5E002C0EAE3F5E0849159
:1043B00090E0AF0124C06115710541F061307105D5
:1043C000D1F489E090E047E755E019C089E090E03A
:1043D0004EE555E014C06115710541F0613071057D
:1043E00051F482E390E049E955E009C084E490E0AB
:1043F0004BEC55E004C080E090E040E050E0F90173
:1044000051834083089580E189BD82E189BD09B46B
:1044100000FEFDCF8091D8008F7D8093D8008091E1
:10442000E00082608093E0008091E00081FDFCCF9D
:104430000895A0E0B0E0EFE1F2E20C944C27EC012B
:104440008B017A010E947123811133C0E114F104C0
:1044500039F0F70180819181081B190BC80FD91F12
:10446000C12CD12C0115110519F18091E80085FDB1
:1044700016C08091E8008E778093E800E114F10483
:1044800049F0F70180819181C80ED91ED182C08286
:1044900085E00FC00E947123882321F30AC089910F
:1044A0008093F10001501109FFEFCF1ADF0ADACF34
:1044B00080E0CDB7DEB7E8E00C94682720910A03CE
:1044C00030910B032617370748F06115710539F451
:1044D0002091E8002E772093E80001C0B901FC018B
:1044E00020E06115710579F1809103038823F1F1D2
:1044F0008530F1F18091E80083FD3CC08091E800B7
:1045000082FD2EC08091E80080FFEBCF2091F30068
:104510008091F20090E0922B6115710551F0883086
:10452000910538F421912093F100615071090196B1
:10453000F3CF21E0089709F020E08091E8008E7722
:104540008093E800CECF2111CFCF0AC08091030322
:10455000882361F0853061F08091E80083FD0AC016
:104560008091E80082FFF2CF80E0089582E0089514
:1045700083E0089581E0089520910A0330910B03B0
:104580002617370748F06115710539F42091E800C6
:104590002E772093E80001C0B901FC0120E06115ED
:1045A000710591F180910303882309F440C085309F
:1045B00009F43FC08091E80083FD3DC08091E80090
:1045C00082FD2FC08091E80080FFE9CF2091F300A9
:1045D0008091F20090E0922B6115710559F08830BE
:1045E000910540F424912093F100319661507109B6
:1045F0000196F2CF21E0089709F020E08091E800D1
:104600008E778093E800CBCF2111CCCF0AC0809168
:104610000303882361F0853061F08091E80083FD19
:104620000AC08091E80082FFF2CF80E0089582E026
:10463000089583E0089581E00895982F973068F5F4
:104640009093E900981739F07091EC002091ED00FB
:104650005091F00003C0242F762F50E021FD02C0BE
:104660009F5FECCF3091EB003E7F3093EB003091B9
:10467000ED003D7F3093ED003091EB0031603093E1
:10468000EB007093EC002093ED005093F00020912C
:10469000EE0027FDE5CF80E008958F708093E9005C
:1046A00081E008958091040387FF11C08091E800A4
:1046B00082FD05C0809103038111F8CF11C0809164
:1046C000E8008B770BC080910303882349F0809129
:1046D000E80080FFF8CF8091E8008E778093E800B3
:1046E00008952091E4003091E50095E64091EC00BA
:1046F000842F817040FF23C08091E80080FD1DC0A1
:1047000080910303882399F0853099F08091EB0024
:1047100085FD11C04091E4005091E5002417350754
:1047200029F3915011F09A01E1CF84E0089582E0DD
:10473000089583E0089581E0089580E00895409110
:10474000E80042FFDDCF08950E9413240E941B243D
:10475000E0EEF0E0808181608083E8EDF0E0808130
:104760008F77808319BCA7EDB0E08C918E7F8C93FE
:1047700080818F7E80831092020308950F931F9390
:10478000CF93DF930E9413240E941B24C8EDD0E036
:1047900088818F77888388818068888388818F7DEE
:1047A000888319BC109203031092FF021092010338
:1047B0001092000300EE10E0F80180818B7F80836F
:1047C00088818160888342E060E080E00E941D2350
:1047D000E1EEF0E080818E7F8083E2EEF0E0808188
:1047E00081608083808188608083F80180818E7FF2
:1047F0008083888180618883DF91CF911F910F91A1
:104800000895E8EDF0E080818F7E8083E7EDF0E0B1
:1048100080818160808384E082BF81E08093020395
:104820000E94BE230895E8EDF0E080818E7F8083B2
:104830001092E20008951092DA001092E1000895BB
:104840001F920F920FB60F9211242F933F934F9305
:104850005F936F937F938F939F93AF93BF93EF93E8
:10486000FF938091E10082FF0BC08091E20082FF04
:1048700007C08091E1008B7F8093E1000E948B262E
:104880008091DA0080FF1FC08091D80080FF1BC09C
:104890008091DA008E7F8093DA008091D90080FFCA
:1048A0000DC080E189BD82E189BD09B400FEFDCF64
:1048B00081E0809303030E945C2005C019BC109224
:1048C00003030E946A208091E10080FF19C080915B
:1048D000E20080FF15C08091E2008E7F8093E200AD
:1048E0008091E20080618093E2008091D800806234
:1048F0008093D80019BC85E0809303030E94732045
:104900008091E10084FF30C08091E20084FF2CC0E0
:1049100080E189BD82E189BD09B400FEFDCF8091AF
:10492000D8008F7D8093D8008091E1008F7E8093A6
:10493000E1008091E2008F7E8093E2008091E200AE
:1049400081608093E2008091FF02882311F084E06F
:1049500007C08091E30087FD02C081E001C083E0D1
:10496000809303030E947C208091E10083FF29C093
:104970008091E20083FF25C08091E100877F8093D2
:10498000E10082E0809303031092FF028091E10036
:104990008E7F8093E1008091E2008E7F8093E20021
:1049A0008091E20080618093E20042E060E080E07C
:1049B0000E941D238091F00088608093F0000E9487
:1049C0006D20FF91EF91BF91AF919F918F917F915A
:1049D0006F915F914F913F912F910F900FBE0F906C
:1049E0001F9018951F920F920FB60F9211242F93BC
:1049F0003F934F935F936F937F938F939F93AF9367
:104A0000BF93CF93DF93EF93FF93C091E900CF70F3
:104A10008091EC00D82FD17080FDD0E81092E90091
:104A20008091F000877F8093F00078940E94362573
:104A30001092E9008091F00088608093F000CD2B07
:104A4000CF70C093E900FF91EF91DF91CF91BF91BB
:104A5000AF919F918F917F916F915F914F913F9116
:104A60002F910F900FBE0F901F901895AAE2B0E003
:104A7000ECE3F5E20C945127E4E0F3E08091F100DF
:104A8000819323E0EC30F207C9F70E949C208091CB
:104A9000E80083FF2EC18091040390910503492F04
:104AA00050E04A30510508F024C1FA01EA56FF4FA0
:104AB0000C940B27803821F0823809F01AC108C005
:104AC0008091000390910103992389F082600FC0C7
:104AD000809108038F70873008F00BC18093E90044
:104AE0008091EB0085FB882780F91092E900909176
:104AF000E800977F9093E8008093F1001092F10016
:104B0000D1C0282F2D7F09F0F4C0882319F08230FE
:104B100061F0EFC080910603813009F0EAC0933064
:104B200009F080E0809301032EC08091060381117B
:104B30002AC0809108038F702FEF280F263008F0CD
:104B4000D8C08093E9002091EB0020FF1CC0933077
:104B500021F48091EB00806214C09091EB00906191
:104B60009093EB0021E030E0A90102C0440F551FF3
:104B70008A95E2F74093EA001092EA008091EB00F8
:104B800088608093EB001092E9008091E800877FB5
:104B90008093E8000E945223ACC08111AAC01091FA
:104BA00006031F778091E3008078812B8093E300D8
:104BB0008091E800877F8093E8000E9452238091D3
:104BC000E80080FFFCCF8091E30080688093E300E1
:104BD000111102C082E001C083E08093030389C009
:104BE0008058823008F085C08091060390910703B9
:104BF0008C3D53E0950779F583E08A838AE28983C7
:104C00004FB7F894DE01139620E03EE051E2E32F27
:104C1000F0E050935700E49120FF03C0E295EF705D
:104C20003F5FEF708E2F90E0EA3010F0C79601C022
:104C3000C0968D939D932F5F243149F74FBF80918C
:104C4000E800877F8093E8006AE270E0CE01019679
:104C50000E945E2216C06091080370910903AE01A4
:104C60004F5F5F4F0E94A221BC01892B09F441C014
:104C70009091E800977F9093E80089819A810E9443
:104C8000BC228091E8008B778093E80032C08038A6
:104C900081F58091E800877F8093E8008091FF0292
:104CA0008093F1008091E8008E7772CF811121C04E
:104CB000809106039091070399270297D4F480917D
:104CC000E800877F8093E800809106038093FF02CD
:104CD0000E9452238091FF02811106C08091E3005F
:104CE00087FD02C081E001C084E0809303030E943D
:104CF00087208091E80083FF0AC08091E800877FC9
:104D00008093E8008091EB0080628093EB00AA968C
:104D1000E3E00C946D270895CF93809103038823DB
:104D2000A1F0C091E900CF709091EC00892F8170C3
:104D300090FD80E8C82B1092E9008091E80083FD87
:104D40000E943625CF70C093E900CF910895991B3A
:104D500079E004C0991F961708F0961B881F7A9572
:104D6000C9F78095089587FB082E062687FD819553
:104D700067FD61950E94A7260EF4919507FC819529
:104D80000895AA1BBB1B51E107C0AA1FBB1FA61792
:104D9000B70710F0A61BB70B881F991F5A95A9F7E4
:104DA00080959095BC01CD01089597FB072E16F4D0
:104DB000009407D077FD09D00E94C12607FC05D0DA
:104DC0003EF4909581959F4F0895709561957F4F22
:104DD0000895A1E21A2EAA1BBB1BFD010DC0AA1F3C
:104DE000BB1FEE1FFF1FA217B307E407F50720F054
:104DF000A21BB30BE40BF50B661F771F881F991FCF
:104E00001A9469F760957095809590959B01AC0117
:104E1000BD01CF010895EE0FFF1F0590F491E02D25
:104E200009940E941927332312F48A1B9B0B0C94BC
:104E30002A27A29FB001B39FC001A39F700D811DBF
:104E40001124911DB29F700D811D1124911D089593
:104E50000E941927B7FF0895821B930B08950E94A3
:104E60001927A59F900DB49F900DA49F800D911DB3
:104E700011240895B7FF0C942F270E942F27821B1F
:104E8000930B08952F923F924F925F926F927F9271
:104E90008F929F92AF92BF92CF92DF92EF92FF924A
:104EA0000F931F93CF93DF93CDB7DEB7CA1BDB0BF6
:104EB0000FB6F894DEBF0FBECDBF09942A8839889B
:104EC00048885F846E847D848C849B84AA84B984A2
:104ED000C884DF80EE80FD800C811B81AA81B981AE
:104EE000CE0FD11D0FB6F894DEBF0FBECDBFED01C2
:104EF00008950F93083090F0982F872F762F652F05
:104F0000542F432F322F22270850F4CF220F331F64
:104F1000441F551F661F771F881F991F0A95B2F7F8
:104F20000F91089597FB10F8169400080F9308301E
:104F300098F00850232F342F452F562F672F782FA6
:104F4000892F902DF4CF0594979587957795679540
:104F500057954795379527950A95AAF70F91089584
:104F60008F929F92AF92BF92CF92DF92EF92FF9279
:104F7000CF93DF93EC01688179818A819B816115F0
:104F800071058105910521F464E279ED8BE597E0E7
:104F90002DE133EF41E050E00E94902849015A0191
:104FA0009B01AC01A7EAB1E40E942F276B017C01B1
:104FB000ACEEB4EFA50194010E943D27DC01CB01CA
:104FC0008C0D9D1DAE1DBF1DB7FF03C00197A1092C
:104FD000B04888839983AA83BB839F77DF91CF9161
:104FE000FF90EF90DF90CF90BF90AF909F908F9009
:104FF00008950E94B027089580E091E00E94B027B4
:105000000895A0E0B0E08093000190930101A09387
:105010000201B09303010895FB01DC0102C0059079
:105020000D9241505040D8F70895FC014150504036
:1050300030F001900616D1F73197CF0108958827F7
:1050400099270895FB01DC0104C08D91019080191E
:1050500021F441505040C8F7881B990B0895FB017B
:10506000DC0102C001900D9241505040D8F70895E4
:10507000F999FECF92BD81BDF89A992780B5089520
:10508000A6E1B0E044E050E00C948228A8E1B0E052
:1050900042E050E00C948228DC01A40FB51F41507F
:1050A000504048F0CB01840F951F2E910E945D283F
:1050B00041505040D0F70895262FF999FECF92BD68
:1050C00081BDF89A019700B4021639F01FBA20BDCD
:1050D0000FB6F894FA9AF99A0FBE08950396272FFF
:1050E0000E945D280E945C28252F0E945D28242FA5
:1050F0000C945D280196272F0E945D280C945C2853
:10510000DC01CB01FC01F999FECF06C0F2BDE1BD87
:10511000F89A319600B40D9241505040B8F7089576
:10512000052E97FB1EF400940E94A72857FD07D078
:105130000E94E92607FC03D04EF40C94A728509552
:105140004095309521953F4F4F4F5F4F0895909573
:105150008095709561957F4F8F4F9F4F0895F8947C
:02516000FFCF7F
:10516200010000005002010102000A000A0A0119AE
:105172001A1B1C1D1E1F20212200000100151F46A4
:105182002019201A203F20E200E900EA00B500B60B
:1051920000B700CD008301CC008A01920194012165
:1051A20002230224022502260227022A02B300B4A5
:1051B200006F0070009F01CB019F02A002818283D9
:1051C200E200E900EA00B500B600B700CD008301B5
:1051D200CC008A01920194012102230224022502B9
:1051E200260227022A02B300B4006F0070009F015A
:1051F200CB019F02A002818283F4F5F6F7313332AC
:105202003690946697C63435000102020202060601
:10521200060909090909090F0F0F0F0F0F151515B7
:1052220018191919191919191919192324252525B4
:0C523200252525CE1BD01BDC1BE71B0034
:00000001FF
